:10000000F5C0000024C1000022C1000020C1000092
:100010001EC100001CC100001AC1000018C1000070
:1000200016C1000014C1000012C1000010C1000080
:100030000EC100000CC100000AC1000008C1000090
:1000400006C100000C94500E02C1000000C1000067
:10005000FEC00000FCC00000FAC000000C945C0C64
:10006000F6C000000C94260C0C94FC0BF0C00000B1
:10007000EEC00000ECC00000EAC00000E8C00000D4
:100080000C94230EE4C00000E2C00000E0C00000B9
:10009000DEC00000DCC00000DAC000000C94A60C3A
:1000A000D6C00000D4C000000C94F60DD0C00000F3
:1000B000CEC00000CCC00000CAC000000C94C90D26
:1000C000C6C00000C4C00000C2C00000C0C0000024
:1000D000BEC00000BCC00000BAC00000B8C0000034
:1000E000B6C0000000002100240027002A002D00D7
:1000F0003000330001010000040107010A01000083
:100100002200250028002B002E00310034000201BF
:100110000000050108010B01050505050705080894
:100120000808020202020A0A080804040404010181
:100130000101010101010303030303030303040796
:1001400007070C0C0C0C0C0C0C0C0202020206062D
:100150000606060606060B0B0B0B0B0B0B0B010220
:1001600010202008081020401020408002010201C9
:100170000804020101020408102040808040201081
:1001800008040201800402018040201008040201DA
:100190000804020101020408102040800102040842
:1001A0001020408000000A0B02090C0D0E08070306
:1001B000040100000000000000000000000000003A
:1001C000000000000000000000000000000000002F
:1001D00012111000000000000000000000000000EC
:1001E000000000000000000000007D0E11241FBE72
:1001F000CFEFD1E2DEBFCDBF00E00CBF12E0A0E048
:10020000B2E0E2E4F7E200E00BBF02C007900D921B
:10021000A638B107D9F725E0A6E8B2E001C01D92E3
:10022000A630B207E1F710E0C6EFD0E000E006C06C
:1002300021970109802FFE010E944B13C53FD10772
:1002400080E00807A9F70E94420F0C949F13D8CEB4
:10025000E9E5F3E0A089B18982E08C93A485B585B6
:100260001C92A685B7858FEC8C93108EA489B589D6
:1002700086E08C93A289B3898C9180618C93A2894A
:10028000B3898C9188608C93A289B3898C918068A2
:100290008C930288F389E02D80818F7D808308957F
:1002A000AF92BF92CF92DF92EF92FF920F931F9384
:1002B000CF93DF936C017B018B01040F151FEB01C2
:1002C0005E01AE18BF08C017D10759F06991D60179
:1002D000ED91FC910190F081E02DC6011995892BDB
:1002E00079F7C501DF91CF911F910F91FF90EF90AA
:1002F000DF90CF90BF90AF9008950895089508952E
:10030000FC01538D448D252F30E0842F90E0821B1B
:10031000930B541710F0CF96089501970895FC01A0
:10032000918D828D981761F0A28DAE0FBF2FB11DF8
:100330005D968C91928D9F5F9F73928F90E0089550
:100340008FEF9FEF0895FC01918D828D981731F00A
:10035000828DE80FF11D858D90E008958FEF9FEF5E
:100360000895FC01918D228D892F90E0805C9F4F34
:10037000821B91098F739927089589E593E0F1DF36
:1003800021E0892B09F420E0822F0895FC01A48D3F
:10039000A80FB92FB11DA35ABF4F2C91848D90E0A7
:1003A00001968F739927848FA689B7892C93A0898A
:1003B000B1898C91837080648C93938D848D981314
:1003C00006C00288F389E02D80818F7D80830895A7
:1003D000EF92FF920F931F93CF93DF93EC0181E095
:1003E000888F9B8D8C8D98131AC0E889F98980813C
:1003F00085FF15C09FB7F894EE89FF896083E8896F
:10040000F98980818370806480839FBF81E090E060
:10041000DF91CF911F910F91FF90EF900895F62EED
:100420000B8D10E00F5F1F4F0F731127E02E8C8D87
:100430008E110BC00FB607FCFACFE889F9898081CD
:1004400085FFF5CFCE01A2DFF2CFEB8DEC0FFD2FB4
:10045000F11DE35AFF4FF0829FB7F8940B8FEA89A2
:10046000FB8980818062D0CFCF93DF93EC01888DB0
:100470008823B1F0AA89BB89E889F9898C9185FD27
:1004800003C0808186FD0CC00FB607FCF7CF8C91AE
:1004900085FFF2CF808185FFEDCFCE0177DFEACFF8
:1004A000DF91CF91089580E090E0892B21F065DF06
:1004B00081110E94000080E090E0892B49F080E0EB
:1004C00090E0892B29F00E94000081110E94000019
:1004D00080E090E0892B49F080E090E0892B29F0C2
:1004E0000E94000081110E94000080E090E0892BB2
:1004F00049F080E090E0892B29F00E9400008111F2
:100500000C9400000895282F30E0F901EC55FE4FBF
:100510009491F901E25AFE4F4491285E3E4FF90151
:100520002491222309F435C0992311F1915092317D
:10053000F8F4E92FF0E08827EF55FD4F8F4F0C942A
:100540004B13D202D602B302CA02CE02B802D902BB
:10055000DF02E302E902ED02F102F702FB02B80258
:10056000FF0205030903809180008F77809380004C
:10057000E22FF0E0EE0FFF1FE250FF4FA591B49184
:100580008FB7F894EC91611148C040954E234C937D
:100590008FBF0895809180008F7DE8CF809180008B
:1005A000877FE4CF84B58F7784BDE2CF84B58F7D1C
:1005B000FBCF8091B0008F778093B000D9CF80912E
:1005C000B0008F7DF9CF809190008F77809390005D
:1005D000CFCF809190008F7DF9CF80919000877F61
:1005E000F5CF8091A0008F778093A000C1CF80913C
:1005F000A0008F7DF9CF8091A000877FF5CF8091FB
:1006000020018F7780932001B3CF809120018F7DCF
:10061000F9CF80912001877FF5CF4E2BB8CFCF93B4
:10062000DF9390E0FC01E25AFE4F2491885E9E4FDA
:10063000FC0184918823D1F090E0880F991FFC0180
:10064000EC51FF4FA591B491FC01E250FF4FC591D1
:10065000D49161110EC09FB7F8948C91E22FE09570
:100660008E238C932881E223E8839FBFDF91CF9173
:1006700008958FB7F894EC91E22BEC938FBFF6CFEF
:1006800020917B00982F987F277F922B90937B005F
:100690008770806480937C0080917A00806480936E
:1006A0007A0080917A0086FDFCCF8091780090914D
:1006B000790008953FB7F8948091DB029091DC02B5
:1006C000A091DD02B091DE0226B5A89B05C02F3FA8
:1006D00019F00196A11DB11D3FBFBA2FA92F982F68
:1006E0008827BC01CD01620F711D811D911D42E063
:1006F000660F771F881F991F4A95D1F708958F922B
:100700009F92AF92BF92CF92DF92EF92FF924B01F6
:100710005C01D0DF6B017C01CDDF6C197D098E0996
:100720009F09683E734081059105B0F321E0821A6C
:100730009108A108B10888EEC80E83E0D81EE11C1C
:10074000F11C81149104A104B10431F7FF90EF90E2
:10075000DF90CF90BF90AF909F908F9008952FB76C
:10076000F8946091D7027091D8028091D90290914B
:10077000DA022FBF0895CF92DF92EF92FF926115B8
:10078000710581059105F1F0DC01CB010197A1090B
:10079000B10930E020E06C017D01CC24CD28CE28C9
:1007A000CF2839F0B695A795979587952F5F3F4F3E
:1007B000F2CF322F2227822B932BFF90EF90DF90E6
:1007C000CF90089590E080E0F8CFDC01ED91FC91AE
:1007D0000190F081E02D1994DC01ED91FC910190E4
:1007E000F081E02D642F19942091B302260F332756
:1007F000331F21323105ECF420912F03FC0190E0EE
:1008000080E0243069F082E00895A091B302219144
:10081000AC014D565D4FA40FB52FB11D2C93019621
:10082000861798F38091B302680F6093B30280E05B
:10083000089581E0089510922F0381E080932E03A4
:100840001092090361E084E15EDE61E085E15BDE38
:10085000E9EBF0E080818E7F808380818D7F8083D3
:1008600088E48093B80085E48093BC000895CF931A
:10087000DF9391E0909392028823A1F0C091B80099
:10088000D091BA008091BC008A7B8093BC0060E06C
:1008900084E139DE60E085E136DECDDFD093BA0059
:1008A000C093B800DF91CF9108958F929F92AF923D
:1008B000BF92CF92DF92EF92FF920F931F93CF934D
:1008C000DF93D0915803D13208F0D0C0182FC091D7
:1008D0005703F0DE6B017C0180912F03811168C00A
:1008E00082E080932F0310932E038FEF80932D03CC
:1008F00010922C03D0932B03A7E3B3E0EBE0F3E0DB
:1009000080E0D8138CC010920A0380910A03CC0FA8
:10091000C82BC0930A0380910903813009F083C07A
:1009200010920903C7DE6B017C0180910A0380935A
:10093000BB008091310390913203A0913303B091B9
:100940003403892B8A2B8B2B99F0B4DE0091310371
:100950001091320320913303309134036C197D09D7
:100960008E099F09061717072807390708F440C0A2
:100970008091BC0083FDD9CF85EC8093BC009ADECA
:100980006B017C0180912F03823009F44EC080916D
:100990002D038F3F09F46CC080912D03803209F440
:1009A00069C080912D03803309F466C084E024C0BF
:1009B0008091310390913203A0913303B0913403BD
:1009C000892B8A2B8B2B09F487CF74DE809031031F
:1009D00090903203A0903303B09034036C197D09DA
:1009E0008E099F0986169706A806B90608F074CFE7
:1009F000809130033CDF85E010923603109258035B
:100A000010923503DF91CF911F910F91FF90EF90DE
:100A1000DF90CF90BF90AF909F908F9008959D9161
:100A200091938F5F6ECF85EEA8CF80913103909127
:100A30003203A0913303B0913403892B8A2B8B2B83
:100A400009F4A0CF37DE00913103109132032091D9
:100A50003303309134036C197D098E099F09061701
:100A600017072807390708F08DCFC2CF81E0C4CF20
:100A700080E0C2CF82E0C0CF83E0BECFEF92FF9292
:100A80001F93CF93DF937C01162FC9EDD4E08E899D
:100A90009F89288D31E030933503209357031092BE
:100AA00036031092580370E060E08FDEB7018E8944
:100AB0009F898BDE8E899F89DC01ED91FC910190ED
:100AC000F081E02D612F199581E0EFDE8B87DF91BA
:100AD000CF911F91FF90EF900895EF92FF920F93A7
:100AE0001F93CF93DF937C018B01C9EDD4E08E89F6
:100AF0009F89288D31E0309335032093570310925E
:100B000036031092580370E060E05FDEB7018E8913
:100B10009F895BDE612F70E08E899F8956DEB80168
:100B200077278E899F8951DE81E0BFDE8B87DF9139
:100B3000CF911F910F91FF90EF900895CF92DF9288
:100B4000EF92FF920F931F93CF93DF93D82FC62F6F
:100B5000613208F092C0AEDD6B017C0180912F0301
:100B6000811168C081E080932F0380932E039FEF53
:100B700090932D0310922C039C0F90932B03809342
:100B80000A0380910A03DD0FD82BD0930A038091CA
:100B90000903813009F073C0109209038BDD6B01EA
:100BA0007C0180910A038093BB0080913103909176
:100BB0003203A0913303B0913403892B8A2B8B2B02
:100BC00099F078DD009131031091320320913303C5
:100BD000309134036C197D098E099F090617170798
:100BE0002807390708F446C08091BC0083FDD9CF9F
:100BF00085EC8093BC005EDD6B017C0180912F034E
:100C0000813009F43EC080912C038C1710F4C09100
:100C10002C03EBE0F3E0A9EEB2E080E08C1352C0CD
:100C20008C2FDF91CF911F910F91FF90EF90DF906C
:100C3000CF9008958091310390913203A0913303B6
:100C4000B0913403892B8A2B8B2B09F487CF32DDAB
:100C5000009131031091320320913303309134031A
:100C60006C197D098E099F09061717072807390790
:100C700008F074CF80913003FADDC0E0D1CF85EE6B
:100C8000B8CF8091310390913203A0913303B0919A
:100C90003403892B8A2B8B2B09F4B0CF0BDD009109
:100CA00031031091320320913303309134036C19D6
:100CB0007D098E099F09061717072807390708F0CD
:100CC0009DCFD8CF91919D938F5FA8CFE091E802FF
:100CD0008091E702E81730F4F0E0E751FD4F8081A2
:100CE00090E008958FEF9FEF08959091E802809132
:100CF000E7022FEF3FEF981748F4E92FF0E0E751B4
:100D0000FD4F208130E09F5F9093E802C901089574
:100D10008091E7029091E802891B990B0895CF9288
:100D2000DF92EF92FF920F931F93CF93DF937C019B
:100D3000CB018A0120913503222389F0EB016B015D
:100D4000C40ED51ECC15DD0561F06991D701ED917A
:100D5000FC910190F081E02DC7011995F3CF642F2C
:100D600043DDC801DF91CF911F910F91FF90EF906C
:100D7000DF90CF900895CF93DF931F92CDB7DEB76A
:100D80006983209135032223F9F020915803203202
:100D900058F021E030E0FC013383228390E080E0D2
:100DA0000F90DF91CF91089580913603E82FF0E006
:100DB000E95CFC4F998190838F5F80933603809329
:100DC000580381E090E0ECCF61E0CE0101960CDDAC
:100DD000F8CF90E080E00895AF92BF92CF92DF927B
:100DE000EF92FF920F931F93CF93DF936B017A01E2
:100DF000EC01C257DD4F28813CE0389F8001399FCC
:100E0000100D1124A090D804B12C27FF1FC0FB01A6
:100E10001182108288818F5F888388819801280FD2
:100E2000311D87FD3A95F6012A153B051CF4888192
:100E30008C30BCF180819181049680349C4908F407
:100E400071C0F6018081918104966EC088819801FD
:100E5000280F311D87FD3A952A153B05DCF6888160
:100E6000A801480F511D87FD5A95FA01EE0FFF1F8B
:100E7000E40FF51FE85BFB4F808186FFCBCF8881B5
:100E8000F801E80FF11D87FDFA95CF01EE0FFF1F66
:100E9000E80FF91FE85BFB4F808160E08F7333DB65
:100EA000B9CF808191812881A801420F511D27FD72
:100EB0005A959A01FA01EE0FFF1FE20FF31FE85B4C
:100EC000FB4F21813281820F931FF7019183808331
:100ED00088819801280F311D87FD3A95F901EE0FA1
:100EE000FF1FE20FF31FE85BFB4F808186FF21C0ED
:100EF0008881080F111D87FD1A95F801EE0FFF1F5D
:100F0000E00FF11FE85BFB4F808161E08F73DF91A1
:100F1000CF911F910F91FF90EF90DF90CF90BF90F6
:100F2000AF90F1CA80E49CE9F701918380838FEF51
:100F30008883DF91CF911F910F91FF90EF90DF9009
:100F4000CF90BF90AF900895AF92BF92CF92DF92B3
:100F5000EF92FF920F931F93CF93DF936417750760
:100F600084F088539F4FFC0180819181DF91CF9164
:100F70001F910F91FF90EF90DF90CF90BF90AF90B7
:100F80000895FB01EE0FFF1FE80FF91F008111818B
:100F90009A01EB01D901AA0FBB1FA80FB91FED9051
:100FA000FC901197E016F106ECF0215031091297F0
:100FB000C217D307A4F37A016C01FE01EE0FFF1FE5
:100FC000E80FF91F11830083AE0141505109BCDFC6
:100FD000BE016F5F7F4FA701C601B6DFF601E85380
:100FE000FF4FC2CF5E01AA0CBB1C6C01CA0CDB1CFC
:100FF000F601F182E0827E01FFEFEF1AFF0AF501B0
:1010000032965F01A80EB91EE701E216F3069CF6C0
:10101000F501C190D1905F01FFEFEF1AFF0A0C15A7
:101020001D0594F721503109CD92DC92C217D307E8
:101030000CF4B0CFC0CF0F931F93CF93DF938C01ED
:10104000C9EDD4E08E899F89288D31E03093350336
:10105000209357031092360310925803612F70E0CB
:10106000B4DBB80177278E899F89AFDB81E01DDC77
:101070008B8762E0888D62DD1092E8028093E70240
:101080008E899F89DC01ED91FC910284F385E02D2E
:10109000199500E0182F8E899F89DC01ED91FC9154
:1010A0000284F385E02D1995802B912BDF91CF9150
:1010B0001F910F9108950F931F93CF93DF938C018E
:1010C000C9EDD4E08E899F89288D31E030933503B6
:1010D00020935703109236031092580370E060E09B
:1010E00074DBB8018E899F8970DB81E0DEDB8B8742
:1010F00061E0888D23DD1092E8028093E7028E89FB
:101100009F89DC01ED91FC910284F385E02D199516
:10111000DF91CF911F910F9108954F925F926F923F
:101120007F928F929F92AF92BF92CF92DF92EF9277
:10113000FF926B017C0120EBC21A21E1D20AE10887
:10114000F10881EEC81688ECD80680E1E806F104C3
:1011500008F0DCC080E690E0AEDFB82E2091F70406
:101160003091F80450E040E060E070E080E090E40E
:101170000E941013A0E0B9E00E9432139B01AC0161
:10118000A6E05695479537952795AA95D1F7B3943C
:10119000BB0CAB2DB0E00E9432132B013C01B6E03A
:1011A0007694679457944794BA95D1F74B015C01B4
:1011B00087E0B694A794979487948A95D1F7C50150
:1011C000B4017058814C9F4FA30192010E941013EB
:1011D0002F3F31054105510529F020F02FEF30E078
:1011E00040E050E0622F8BE490E048DCC501B401A0
:1011F000705F8F4F9F4FA30192010E941013CA018D
:10120000B901B9DABC018AE590E067DCF694E794AD
:10121000D794C7949CE0CC0CDD1CEE1CFF1C9A9567
:10122000D1F7C501B4016C0D7D1D8E1D9F1DA3015D
:1012300092010E941013CA01B9019DDABC018EE52A
:1012400090E04BDC83E690E036DFB82E2091F70487
:101250003091F80450E040E060E070E080E090E41D
:101260000E941013A0E0B9E00E9432139B01AC0170
:1012700066E056954795379527956A95D1F7A1E091
:10128000AB0DAA0FB0E00E9432132B013C01E6E047
:101290007694679457944794EA95D1F74B015C0193
:1012A000F7E0B694A79497948794FA95D1F7C5017F
:1012B000B401705F8F4F9F4FA30192010E941013E2
:1012C000CA01B90158DABC018CE590E006DCC7011F
:1012D000B601680D791D8A1D9B1DA30192010E9414
:1012E0001013CA01B90147DABC0181E690E0F5DBD1
:1012F00081E0FF90EF90DF90CF90BF90AF909F90F4
:101300008F907F906F905F904F90089580E0F1CF25
:101310008F929F92AF92BF92CF92DF92EF92FF9205
:101320000F9380E690E0C7DEF82E2091F70430910D
:10133000F80450E040E060E070E080E090E40E945B
:101340001013A0E0B9E00E9432139B01AC0186E0CB
:1013500056954795379527958A95D1F7F394FF0CC5
:10136000AF2DB0E00E9432136B017C018EE590E05E
:1013700062DE9C01BC01772790E080E004C0660F2C
:10138000771F881F991F3A95D2F76F5F7F4F8F4F56
:101390009F4FA7019601E6E056954795379527950B
:1013A000EA95D1F70E945313385F4F4F5F4F6F4F4D
:1013B0007F4F8F4F9F4F0CE00E947C1349015A01D1
:1013C00088ED880E88E0981EA11CB11C880C991C21
:1013D000AA1CBB1C6FE080E690E050DB6DE083E66A
:1013E00090E04CDB68EB89E690E048DB6FE088E753
:1013F00090E044DB6DE089E790E040DB6EE08AE757
:1014000090E03CDB6EE08BE790E038DB81EB881608
:1014100081E19806A104B10418F0C501B4017DDE94
:1014200082E090E09093FF048093FE0481E00F91AE
:10143000FF90EF90DF90CF90BF90AF909F908F90F4
:101440000895FC0101900020E9F73197AF01481B96
:10145000590BBC0189E593E00C9450018F929F9247
:10146000AF92BF920F931F93CF93DF93CDB7DEB7A9
:10147000A1970FB6F894DEBF0FBECDBF19A24230C0
:1014800008F44AE08E010F5D1F4F842E912CB12C81
:10149000A12CA50194010E941013E62FB901CA01E5
:1014A000EA30ECF4E05DD801EE938D01232B242B80
:1014B000252B79F790E080E0109711F0CD01C1DF86
:1014C000A1960FB6F894DEBF0FBECDBFDF91CF91CE
:1014D0001F910F91BF90AF909F908F900895E95CFE
:1014E000E2CFCF92DF92EF92FF92CF93DF936C0126
:1014F000990FEE08FF08F7FE18C06DE289E593E04A
:101500000E94E801EC0166277727CB016C197D0961
:101510008E099F094AE0A2DF8C0F9D1FDF91CF91BA
:10152000FF90EF90DF90CF9008954AE0C701B60199
:10153000DF91CF91FF90EF90DF90CF908FCFCF933F
:10154000DF937FDFEC0184E292E07BDF8C0F9D1F55
:10155000DF91CF91089575CF2F923F924F925F9276
:101560006F927F928F929F92AF92BF92CF92DF92B3
:10157000EF92FF920F931F93CF93DF93CDB7DEB718
:10158000C854D6400FB6F894DEBF0FBECDBF82E977
:1015900091E09E012F5F3F4F7901F9019C0111926B
:1015A00021503040E1F71E013DE6231A3EEF330A99
:1015B000F1019C01119221503040E1F73E013BEDD9
:1015C000631A3CEF730AF3019C01119221503040E1
:1015D000E1F72E0139E4431A3BEF530AF2019C0173
:1015E000119221503040E1F787014101530162011E
:1015F00080E046D8F801819391938F0181E040D833
:10160000F401819391934F018EE03AD8F5018193D3
:1016100091935F018FE034D8F601819391936F012C
:101620000215130529F748EC50E070E060E0C701AF
:101630008BDC7C0190938D0280938C0248EC50E00F
:1016400070E060E0C80180DC90938B0280938A0296
:1016500048EC50E070E060E0C30176DC90938902D2
:101660008093880248EC50E070E060E0C2016CDCDE
:101670009093870280938602C70133DF87E292E06E
:101680006ADF80918A0290918B022BDF87E292E0E1
:1016900062DF809188029091890223DF87E292E0E5
:1016A0005ADF80918602909187021BDF87E292E0E9
:1016B00052DF90E080E015DF84E292E0C2DEC85B9A
:1016C000D94F0FB6F894DEBF0FBECDBFDF91CF91DB
:1016D0001F910F91FF90EF90DF90CF90BF90AF9050
:1016E0009F908F907F906F905F904F903F902F9042
:1016F00008951F93CF93DF9300D01F92CDB7DEB72D
:1017000089E593E00E948F0189E593E00E948F01B3
:1017100010E08A3379F0E1E0F0E0EC0FFD1FE10F1B
:10172000F11D17FDFA9580831F5F89E593E00E9404
:101730008F01EFCFCE0101964ED7182F89E593E0A8
:101740000E948F018053990B8230910520F4682FFD
:10175000812F0E94830289E593E00E948F018A30E5
:1017600011F08D30C1F789E593E00E94A3018A3022
:1017700021F489E593E00E948F010F900F900F9064
:101780000F90DF91CF911F91089585ED8093BC005C
:101790008091310390913203A0913303B0913403CF
:1017A0000796A11DB11D23E0B695A795979587953E
:1017B0002A95D1F72091BC0024FD03C010922F037D
:1017C0000895409131035091320360913303709139
:1017D0003403452B462B472B69F30097A105B10530
:1017E00041F025E32A95F1F700000197A109B1091D
:1017F000E1CF809130033BC81F920F920FB60F923A
:1018000011240BB60F922F933F934F935F936F93D7
:101810007F938F939F93AF93BF93EF93FF9389E54C
:1018200093E00E94C601FF91EF91BF91AF919F910C
:101830008F917F916F915F914F913F912F910F9079
:101840000BBE0F900FBE0F901F9018951F920F9216
:101850000FB60F9211240BB60F922F938F939F9375
:10186000EF93FF93E0916903F0916A038081E09127
:101870006F03F091700382FD1DC09081809172030F
:101880008F5F8F7320917303821741F0E091720391
:10189000F0E0E75AFC4F958F80937203FF91EF9130
:1018A0009F918F912F910F900BBE0F900FBE0F90B5
:1018B0001F9018958081F2CF1F920F920FB60F9252
:1018C00011242F933F938F939F93AF93BF93809156
:1018D000D7029091D802A091D902B091DA0230914A
:1018E000D60223E0230F2D3758F50196A11DB11D17
:1018F0002093D6028093D7029093D802A093D90266
:10190000B093DA028091DB029091DC02A091DD02BB
:10191000B091DE020196A11DB11D8093DB02909370
:10192000DC02A093DD02B093DE02BF91AF919F91E4
:101930008F913F912F910F900FBE0F901F90189590
:1019400026E8230F0296A11DB11DD2CF1F920F9240
:101950000FB60F9211240BB60F922F933F934F9314
:101960005F936F937F938F939F93AF93BF93EF9307
:10197000FF938091B900887F803609F44CC008F04D
:101980003FC0883209F4A8C028F5803109F49CC012
:10199000C8F4882309F4FAC0883009F495C0FF918F
:1019A000EF91BF91AF919F918F917F916F915F91D7
:1019B0004F913F912F910F900BBE0F900FBE0F9044
:1019C0001F901895883109F487C0803241F78093C1
:1019D0002D0314C0803409F49CC040F48033B9F363
:1019E0008833E9F680932D0385ECAFC0803509F488
:1019F00084C0883509F495C0883489F6C6DECFCF17
:101A0000883909F48CC038F5883729F050F48836C5
:101A100011F0803721F683E080932F031092D502D6
:101A200057C0883809F47BC0803919F0803809F034
:101A3000B6CF8091D502803208F071C0E091D50216
:101A400081E08E0F8093D5028091BB00F0E0EB54D3
:101A5000FD4F80833DC0803B39F0E0F4803A09F4CB
:101A600079C0883A09F09BCF84E080932F031092CD
:101A7000B4021092B302E091E102F091E2021995F2
:101A80008091B30281110FC081E08093B302109264
:101A9000930209C0803C09F4A7CF883C09F4A4CF85
:101AA000883B09F07CCFE091B40281E08E0F8093F7
:101AB000B402F0E0ED56FD4F80818093BB00909121
:101AC000B4028091B30229C080910A038093BB00C5
:101AD00085EC8093BC0063CF90912C0380912B0305
:101AE000981758F5E0912C0381E08E0F80932C031A
:101AF000F0E0E55FFC4F8081E9CFE0912C0381E0CD
:101B00008E0F80932C038091BB00F0E0E55FFC4FCB
:101B1000808390912C0380912B039817C8F285E85D
:101B2000D8CFE0912C0381E08E0F80932C0380911D
:101B3000BB00F0E0E55FFC4F808380912E038111B4
:101B40005DCF81E08093090384EA8093BC0010920A
:101B50002F0325CF85EC8093BC0010922F0380913A
:101B6000D502803230F4E091D502F0E0EB54FD4F25
:101B700010826091D50270E0E091DF02F091E00206
:101B800085EB92E019951092D50209CF10922D03A2
:101B900035CF1F920F920FB60F9211240BB60F92F2
:101BA0002F933F934F935F936F937F938F939F9365
:101BB000AF93BF93EF93FF9348E251E064E271E08B
:101BC00090E080E009D9FF91EF91BF91AF919F9193
:101BD0008F917F916F915F914F913F912F910F90D6
:101BE0000BBE0F900FBE0F901F9018951F920F9273
:101BF0000FB60F9211240BB60F922F933F934F9372
:101C00005F936F937F938F939F93AF93BF93EF9364
:101C1000FF9348EA50E064EA70E083E090E0DCD8AB
:101C2000FF91EF91BF91AF919F918F917F916F91B4
:101C30005F914F913F912F910F900BBE0F900FBE70
:101C40000F901F9018951F920F920FB60F921124AC
:101C50000BB60F922F933F934F935F936F937F93A6
:101C60008F939F93AF93BF93EF93FF9348E950E017
:101C700064E970E082E090E0AFD8FF91EF91BF910E
:101C8000AF919F918F917F916F915F914F913F9114
:101C90002F910F900BBE0F900FBE0F901F901895B5
:101CA0001F920F920FB60F9211240BB60F922F9323
:101CB0003F934F935F936F937F938F939F93AF93D4
:101CC000BF93EF93FF9348E850E064E870E081E051
:101CD00090E082D8FF91EF91BF91AF919F918F914A
:101CE0007F916F915F914F913F912F910F900BBE1C
:101CF0000F900FBE0F901F90189510925C031092DA
:101D00005B0388EE93E0A0E0B0E080935D039093E6
:101D10005E03A0935F03B093600324E032E030934E
:101D20005A032093590325EC30E030936603209347
:101D3000650324EC30E0309368032093670320ECC4
:101D400030E030936A032093690321EC30E0309354
:101D50006C0320936B0322EC30E030936E032093EE
:101D60006D0326EC30E03093700320936F031092E4
:101D70007203109273031092740310927503109201
:101D80003F0410923E048093400490934104A0933A
:101D90004204B093430486E192E090933D04809323
:101DA0003C041092FC031092FD031092FE0310926B
:101DB000FF0310920004109201041092020410928A
:101DC0000304109204041092050410920604109269
:101DD0000704109208041092090410920A04109249
:101DE0000B048091D804803308F044C091E0980F30
:101DF0009093D8048093030590E0FC01EE0FFF1F41
:101E0000E80FF91FE85BFB4F88EB9BE0928381832F
:101E10008091D804803390F591E0980F9093D80486
:101E20008093000590E0FC01EE0FFF1FE80FF91F03
:101E3000E85BFB4F88EB9BE0928381838CE394E02B
:101E40009093F0048093EF0489E28093F104109260
:101E5000F3041092F2041092F4041092FB04109216
:101E6000FC041092FD0483E090E09093FF048093C3
:101E7000FE0408958FEF80930305CACF8FEF809300
:101E80000005DCCF789484B5826084BD84B5816020
:101E900084BD85B5826085BD85B5816085BD809135
:101EA0006E00816080936E001092810080918100AD
:101EB00082608093810080918100816080938100A5
:101EC000809180008160809380008091B100846067
:101ED0008093B1008091B00081608093B0008091C8
:101EE0009100826080939100809191008160809345
:101EF0009100809190008160809390008091A1007A
:101F000082608093A1008091A10081608093A100F4
:101F10008091A00081608093A00080912101826067
:101F20008093210180912101816080932101809122
:101F3000200181608093200180917A0084608093E9
:101F40007A0080917A00826080937A0080917A0092
:101F5000816080937A0080917A00806880937A0013
:101F60001092C100109238041092390410923A0471
:101F700010923B041092F8031092F9031092FA03A6
:101F80001092FB030E94AF036B017C014B015C01CB
:101F900028EB820E2BE0921EA11CB11C0E94AF0305
:101FA0006C157D058E059F0528F086169706A806F8
:101FB000B906A0F768EE73E080E090E00E947F032E
:101FC0000E9428010E94AF036093F8037093F90305
:101FD0008093FA039093FB0389E292E0BCDA0E94BB
:101FE000AF036B017C014B015C013AE0830E911C55
:101FF000A11CB11C0E94AF036C157D058E059F05C9
:1020000028F086169706A806B906A0F781E0809307
:102010000C040E94AF036093F8037093F90380935C
:10202000FA039093FB038AE392E095DA0E94280179
:1020300081E492E084DA1092E8021092E7021092B2
:102040003603109258030E941B048EE791E0909390
:10205000E2028093E1028FE791E09093E0028093A7
:10206000DF028CE08093B80084EF91E09093F3045A
:102070008093F2048FE091E00E941B088C3C9A4E02
:10208000E1F560E090E080E00E943E058BE891E0A1
:102090000197F1F761E090E080E00E943E0561E089
:1020A00070E080E090E00E947F030E94AF03709395
:1020B000F6046093F50485EE90E00E945B0880FFD3
:1020C00004C08091E4048823E1F08091F2049091AF
:1020D000F304892B81F30E94AF032091F504309122
:1020E000F604621B730B8091F2049091F30486173F
:1020F000970708F781E08093F4048AE492E01FDAFE
:10210000FFCF8EE290E00E945B08682F61608EE254
:1021100090E00E943E0586E090E00E941B089093AC
:10212000F8048093F7048EED90E00E941B089093D2
:10213000FA048093F90460E07AE084E290E00E947F
:102140006D0562E081E390E00E943E0568E086E371
:1021500090E00E943E0560E187E390E00E943E052A
:1021600061E089E390E00E943E056FEF8EE390E02E
:102170000E943E0560E08FE390E00E943E0562E031
:1021800080E490E00E943E0570E060E080E590E031
:102190000E946D0570E060E082E590E00E946D05B0
:1021A00068E387E590E00E943E0568E671E084E61A
:1021B00090E00E946D0560EC70E086E690E00E9481
:1021C0006D0561E081E790E00E943E0561E08CE7EB
:1021D00090E00E943E0562E08EE790E00E943E059E
:1021E00060E082E890E00E943E0561E087E790E0D1
:1021F0000E943E056BE881E890E00E943E0560E0A9
:1022000078EC84E590E00E946D0562E08FE490E058
:102210000E943E057DD860E573EC80E090E00E946E
:102220008D0882E290E00E941B08BC01660F771FB8
:10223000660F771F8EE190E00E946D0569D860E51A
:1022400073EC80E090E00E948D082091F9043091B9
:10225000FA04A2E3B0E010D26B017C018091EF049C
:102260009091F0042091F10431E0309335032093F4
:102270005703109236031092580370E060E00E94FA
:10228000E5036CE670E08091EF049091F0040E9409
:10229000E50340E050E0BA018091EF049091F00432
:1022A0000E94EC03A701662777278091EF049091A5
:1022B000F0040E94EC034D2D50E070E060E080914E
:1022C000EF049091F0040E94EC03B701A60155279A
:1022D000662777278091EF049091F0040E94EC0329
:1022E00081E00E9455048093E40461E086E890E078
:1022F0000E943E0560E487E890E00E943E0561E0B0
:1023000084E00E940F0361E085E00E940F0361E01A
:1023100086E00E940F0361E087E00E940F0361E006
:1023200088E00E940F0361E089E00E940F0361E0F2
:102330008AE00E940F0361E08BE00E940F0360E0DF
:1023400086E30E940F0360E087E30E940F0360E0D2
:1023500084E40E940F0360E085E40E940F0360E0C4
:1023600086E10E940F0360E086E10E94830260E044
:1023700082E10E940F0360E082E10E94830260E03C
:1023800085E10E940F0360E085E10E94830260E026
:1023900081E20E940F0360E081E20E94830261E01B
:1023A00081E30E940F0360E082E30E940F0361E07B
:1023B00081E10E940F0360E080E10E940F0361E071
:1023C0008DE00E940F0324EF822E99249394A12C78
:1023D000B12C0E94AF03672B682B692B09F4E5C071
:1023E0000E94AF03C090E302D090E402E090E502C7
:1023F000F090E6026C157D058E059F0508F4E2C09D
:10240000C090E302D090E402E090E502F090E60292
:102410009B01AC012C193D094E095F0969017A0144
:102420003AEFC316D104E104F10408F4C6C0609386
:10243000E3027093E4028093E5029093E6028092B7
:10244000040490920504A0920604B092070410922E
:1024500008041092090410920A0410920B0480914F
:10246000FC039091FD03A091FE03B091FF038093C4
:10247000000490930104A0930204B09303040E940B
:10248000AF036093FC037093FD038093FE0390936E
:10249000FF0389E593E00E94A301843609F429D95A
:1024A0000E94AF036093F8037093F9038093FA03DB
:1024B0009093FB030E94AF036B017C0182E792E0E3
:1024C0004AD84AE061E070E080E090E00E942E0A85
:1024D00089E792E040D84AE0C701B6010E942E0A7F
:1024E0008BE792E038D88091FC039091FD03A09196
:1024F000FE03B091FF03A7019601281B390B4A0B7D
:102500005B0BCA01B9014AE00E942E0A8BE792E0F8
:1025100022D86091FC037091FD038091FE0390919D
:10252000FF03C0900004D0900104E0900204F090FA
:1025300003046C197D098E099F094AE00E942E0A46
:102540008DE792E008D80E94AF034AE00E942E0A6D
:102550008FE792E00E949F0A0E94AF036B017C010B
:102560002B013C0135E0430E511C611C711C0E9483
:10257000AF036C157D058E059F0528F0461657069E
:1025800068067906A0F789E593E00E94A3018436E6
:1025900009F4AFD80E94AF036093FC037093FD036E
:1025A0008093FE039093FF0308C00E94AF03623044
:1025B00071058105910508F013CF0E94AC0A0E94B5
:1025C000530207CF6093E3027093E4028093E50225
:1025D0009093E60215CFFC0188279927E894219172
:1025E0002032E9F3293010F02E30C8F32B3239F0C5
:1025F0002D3231F4689403C00BD0820F911D2191CC
:1026000020532A30C8F31EF4909581959F4F08956A
:102610007AE0979F902D879F802D910D112408952A
:10262000A1E21A2EAA1BBB1BFD010DC0AA1FBB1FD6
:10263000EE1FFF1FA217B307E407F50720F0A21B48
:10264000B30BE40BF50B661F771F881F991F1A94B5
:1026500069F760957095809590959B01AC01BD01DF
:10266000CF01089509D0A59F900DB49F900DA49F10
:10267000800D911D11240895A29FB001B39FC00148
:10268000A39F700D811D1124911DB29F700D811D9E
:102690001124911D0895EE0FFF1F881F8BBF079017
:1026A000F691E02D1994E894DF93CF93FC01DB01C0
:1026B000E3DF7F936F93E9019A01AC01BF93AF937E
:1026C0003F932F93DF01D8DF26F46C1B7D0B820B29
:1026D000930B9E01EB01FC012AD0AF91BF912F918A
:1026E0003F9125D0BE01CF01F9012F913F91CF91AC
:1026F000DF91089597FD1094002E083098F008504F
:10270000232F342F452F562F672F782F892F912D68
:10271000F4CF159497958795779567955795479535
:10272000379527950A95AAF71124002D0895A4DF5F
:10273000460F571FC81FD91F08F431960895F89403
:02274000FFCFC9
:1027420000000000E801500180013402B1018F0154
:10275200A30100000000BB068F06E9067D01880682
:10276200750666060D0A000900564D4450565F3143
:102772007C315F564D4450560A00564D4450525FCC
:102782000053656E65736F723A004661696C6564E9
:1027920020746F2064657465637420616E642069BF
:1027A2006E697469616C697A652073656E736F72A4
:1027B2002100564D4450455F003A323A007C005F9A
:0627C200564D4450450095
:020000023000CC
:10E000000D9489F10D94B2F10D94B2F10D94B2F129
:10E010000D94B2F10D94B2F10D94B2F10D94B2F1F0
:10E020000D94B2F10D94B2F10D94B2F10D94B2F1E0
:10E030000D94B2F10D94B2F10D94B2F10D94B2F1D0
:10E040000D94B2F10D94B2F10D94B2F10D94B2F1C0
:10E050000D94B2F10D94B2F10D94B2F10D94B2F1B0
:10E060000D94B2F10D94B2F10D94B2F10D94B2F1A0
:10E070000D94B2F10D94B2F10D94B2F10D94B2F190
:10E080000D94B2F10D94B2F10D94B2F10D94B2F180
:10E090000D94B2F10D94B2F10D94B2F10D94B2F170
:10E0A0000D94B2F10D94B2F10D94B2F10D94B2F160
:10E0B0000D94B2F10D94B2F10D94B2F10D94B2F150
:10E0C0000D94B2F10D94B2F10D94B2F10D94B2F140
:10E0D0000D94B2F10D94B2F10D94B2F10D94B2F130
:10E0E0000D94B2F141546D656761323536300041AF
:10E0F000726475696E6F206578706C6F72657220DE
:10E1000073746B3530305632206279204D4C530099
:10E11000426F6F746C6F616465723E004875683F52
:10E1200000436F6D70696C6564206F6E203D200048
:10E130004350552054797065202020203D20005FF9
:10E140005F4156525F415243485F5F3D2000415658
:10E1500052204C696243205665723D20004743437C
:10E160002056657273696F6E203D20004350552024
:10E1700049442020202020203D20004C6F7720663D
:10E18000757365202020203D20004869676820665F
:10E190007573652020203D200045787420667573D6
:10E1A00065202020203D20004C6F636B2066757336
:10E1B000652020203D20004D617220203720323024
:10E1C000313300312E362E3800342E332E350056A2
:10E1D00023202020414444522020206F7020636F70
:10E1E00064652020202020696E73747275637469E1
:10E1F0006F6E2061646472202020496E74657272B3
:10E20000757074006E6F20766563746F7200726A49
:10E210006D702020006A6D70200057686174207056
:10E220006F72743A00506F7274206E6F7420737541
:10E2300070706F72746564004D7573742062652030
:10E2400061206C6574746572002000577269747483
:10E25000696E672045450052656164696E672045B7
:10E26000450045452065727220636E743D00504F35
:10E27000525400303D5A65726F2061646472003FF1
:10E280003D43505520737461747300403D454550C3
:10E29000524F4D207465737400423D426C696E6B41
:10E2A000204C454400453D44756D70204545505215
:10E2B0004F4D00463D44756D7020464C415348001B
:10E2C000483D48656C70004C3D4C69737420492F83
:10E2D0004F20506F72747300513D51756974005234
:10E2E0003D44756D702052414D00563D73686F7707
:10E2F00020696E7465727275707420566563746FF0
:10E30000727300593D506F727420626C696E6B00BD
:10E310002A0011241FBECFEFD1E2DEBFCDBF01E046
:10E320000CBF12E0A0E0B2E0EEE1FDEF03E00BBFB6
:10E3300002C007900D92A030B107D9F712E0A0E01B
:10E34000B2E001C01D92AE30B107E1F70F9460F367
:10E350000D948DFE01E20EBF0FEF0DBF11241FBE05
:10E360000D9460F30D9400F020E030E040ED57E0B4
:10E3700005C0FA013197F1F72F5F3F4F2817390792
:10E38000C0F308959C01260F311DC901A0E0B0E043
:10E390002F5F3F4FABBFFC018791882361F08093D3
:10E3A000C6008091C00086FFFCCF8091C0008064D1
:10E3B0008093C000EACF08958DE08093C6008091DD
:10E3C000C00086FFFCCF8091C00080648093C000B5
:10E3D0008AE08093C6008091C00086FFFCCF8091C8
:10E3E000C00080648093C00008950F94C2F10F9420
:10E3F000DCF10895FC019081992359F09093C600B7
:10E400008091C00086FFFCCF8091C0008064809323
:10E41000C0003196992379F70895282F982F929567
:10E420009F70892F805D8A3308F0895F8093C600D2
:10E430008091C00086FFFCCF8091C00080648093F3
:10E44000C000822F8F70982F905D9A3308F0995FEB
:10E450009093C6008091C00086FFFCCF8091C000E1
:10E4600080648093C00008959C01FB01853691056E
:10E470001CF46330710594F0C90164E670E00F94F8
:10E480002EFE605D7F4F6093C6008091C00086FFC6
:10E49000FCCF8091C00080648093C0002B30310598
:10E4A00014F43297B4F0C90164E670E00F942EFEC4
:10E4B0006AE070E00F942EFE605D7F4F6093C600AF
:10E4C0008091C00086FFFCCF8091C0008064809363
:10E4D000C000C9016AE070E00F942EFEC0968093E0
:10E4E000C6008091C00086FFFCCF8091C000806490
:10E4F0008093C00008951F93182F8EE692EE60E07F
:10E500000F94C2F11093C6008091C00086FFFCCF2B
:10E510008091C00080648093C0000F94DCF11F9153
:10E5200008952F923F924F925F926F927F928F92B7
:10E530009F92AF92BF92CF92DF92EF92FF920F9392
:10E540001F93DF93CF93CDB7DEB762970FB6F894E2
:10E55000DEBF0FBECDBF382E622ECA01DB015C01CB
:10E560006D01772420E2222E2E010894411C511CBB
:10E570008BC081E0A81680E0B80681E0C80680E084
:10E58000D80628F0C601AA27BB270F940DF2BB2797
:10E59000AD2D9C2D8B2D0F940DF28A2D0F940DF225
:10E5A0002092C6008091C00086FFFCCF8091C00001
:10E5B00080648093C0009DE29093C6008091C0006B
:10E5C00086FFFCCF8091C00080648093C0002092C1
:10E5D000C6008091C00086FFFCCF8091C00080649F
:10E5E0008093C00019828601750188249924A1E0D6
:10E5F0003A1651F03A1620F0B2E03B1661F409C029
:10E600000BBFF701779007C0C7010F9477FE782EF4
:10E6100002C0F7017080872D0F940DF22092C60082
:10E620008091C00086FFFCCF8091C0008064809301
:10E63000C000872D8052F401EF70F0708F3520F408
:10E64000E40DF51D708204C0E40DF51D8EE280839B
:10E650000894E11CF11C011D111D0894811C911CE2
:10E6600090E18916910409F0C2CF80E190E0A0E02A
:10E67000B0E0A80EB91ECA1EDB1E198AC2010F9493
:10E68000FAF10F94DCF16A94662009F072CF629679
:10E690000FB6F894DEBF0FBECDBFCF91DF911F91B3
:10E6A0000F91FF90EF90DF90CF90BF90AF909F9031
:10E6B0008F907F906F905F904F903F902F90089534
:10E6C0002F923F924F925F926F927F928F929F9282
:10E6D000AF92BF92CF92DF92EF92FF920F931F9370
:10E6E000DF93CF93CDB7DEB7CD53D1400FB6F894BB
:10E6F000DEBF0FBECDBF01E20EBF0FEF0DBF94B75F
:10E70000F894A89514BE80916000886180936000A1
:10E7100010926000789493FF05C0E0910002F091A0
:10E7200001021995279A2F9A8091C00082608093E8
:10E73000C00080E18093C40088E18093C1000000A4
:10E74000EE24FF24870144E0A42EB12CCC24DD2448
:10E7500024C0C5010197F1F70894E11CF11C011DCB
:10E76000111D21E2E2162EE4F20620E0020720E06D
:10E77000120718F031E0C32ED12CC801B70127ECE5
:10E780003BE140E050E00F9441FE611571058105C9
:10E79000910519F485B1805885B98091C00087FD35
:10E7A00003C0C114D104A9F2A6014F5F5F4FC25E3E
:10E7B000DE4F59834883CE51D140C25EDE4F8881FF
:10E7C0009981CE51D140019711F00D9410FEC05D9A
:10E7D000DE4F19821882C053D14060E0C15DDE4F28
:10E7E0001882CF52D14088249924C35DDE4F19820C
:10E7F0001882CD52D140C05EDE4F188219821A8233
:10E800001B82C052D140CE5CDE4F188219821A8220
:10E810001B82C253D140EE24FF2487010BBFF701B6
:10E8200007911691C45CDE4F19830883CC53D14005
:10E830000D940BFEC25EDE4F28813981CE51D1404E
:10E840002130310509F52091C600C25EDE4F1982E4
:10E850001882CE51D14022C02F5F3F4F4F4F5F4FA4
:10E86000213082E138078AE7480780E0580780F0C6
:10E87000C45CDE4FE881F981CC53D140EF5FFF4F9C
:10E8800019F0EE27FF27099420E030E040E050E047
:10E890008091C00087FFE0CF2091C600C35DDE4FAE
:10E8A00048815981CD52D1404F5F5F4FC35DDE4FEC
:10E8B00059834883CD52D140213209F063C64A3092
:10E8C000510508F05FC60894811C911C53E0851621
:10E8D000910409F059C600E010E018C081E280936D
:10E8E000C6008091C00086FFFCCF8091C00080648C
:10E8F0008093C0002F5F3F4F2931310579F70F9486
:10E90000DCF10F5F1F4F0530110519F020E030E0FA
:10E91000E5CF10920A0210920B0210920C02109294
:10E920000D02109206021092070210920802109235
:10E930000902109202021092030210920402109235
:10E9400005028FEE90EE60E00F94F5F180E191EE1C
:10E9500060E00F94C2F18091C00087FFFCCF9091DE
:10E96000C600903608F09F759032B8F09093C600BC
:10E970008091C00086FFFCCF8091C00080648093AE
:10E98000C000A0E2A093C6008091C00086FFFCCF2B
:10E990008091C00080648093C000983409F4D7C18E
:10E9A0009934B8F4923409F459C1933458F490333B
:10E9B00019F1903308F4E3C59F33A1F1903409F0C5
:10E9C000DEC5BDC0953409F470C1963409F0D7C5D1
:10E9D00098C1923509F42BC2933538F49C3409F46C
:10E9E000F5C1913509F0CBC518C2963509F445C279
:10E9F000993509F0C4C567C483E792EE62E00F94CD
:10EA0000F5F110920602109207021092080210927D
:10EA1000090210920A0210920B0210920C0210923C
:10EA20000D0213C18FE792EE62E00F94F5F18FEEC5
:10EA300090EE60E00F94F5F181E291EE60E00F94CA
:10EA4000C2F187EB91EE60E00F94F5F180E391EE77
:10EA500060E00F94C2F184EE90EE60E00F94F5F167
:10EA60008FE391EE60E00F94C2F186E090E061E008
:10EA700070E00F9434F20F94DCF18DE591EE60E0DC
:10EA80000F94C2F189EC91EE60E00F94F5F18EE401
:10EA900091EE60E00F94C2F183EC91EE60E00F9490
:10EAA000F5F18CE691EE60E00F94C2F18EE10F94E7
:10EAB0000DF288E90F940DF281E00F940DF20F949E
:10EAC000DCF18BE791EE60E00F94C2F119E0E0E039
:10EAD000F0E010935700E4918E2F0F940DF20F94F5
:10EAE000DCF18AE891EE60E00F94C2F1E3E0F0E03F
:10EAF00010935700E4918E2F0F940DF20F94DCF1D8
:10EB000089E991EE60E00F94C2F1E2E0F0E0109349
:10EB10005700E4918E2F0F940DF20F94DCF188EAE8
:10EB200091EE60E00F94C2F1E1E0F0E01093570045
:10EB30001491812F0F940DF20F94DCF107CF8BE825
:10EB400092EE62E00F94F5F18BE492EE60E00F94A8
:10EB5000F5F10F94DCF100E010E019C0C8016F2D51
:10EB60000F947FFEFF2031F489E492EE60E00F9471
:10EB7000C2F10BC0F092C6008091C00086FFFCCFAE
:10EB80008091C00080648093C0000F5F1F4FC80158
:10EB900081519F41A0E0B0E0ABBFFC01F790BAE229
:10EBA000FB1621F0E2E000301E07C1F60F94DCF105
:10EBB0000F94DCF187E592EE60E00F94F5F10F948D
:10EBC000DCF1CC24DD2400E010E01EC0C8010F946D
:10EBD00077FEF82E882331F489E492EE60E00F94FA
:10EBE000C2F10BC08093C6008091C00086FFFCCFAD
:10EBF0008091C00080648093C000FE1419F00894D6
:10EC0000C11CD11C0F5F1F4FC80181519F41A0E063
:10EC1000B0E0ABBFFC01E790FAE2EF1621F022E092
:10EC20000030120799F60F94DCF10F94DCF182E6C4
:10EC300092EE60E00F94C2F1C60161E070E00F94C3
:10EC400034F20F94DCF10F94DCF110920202109276
:10EC50000302109204021092050278CE89E992EE26
:10EC600062E00F94F5F1279A2F9A16C02F9880E052
:10EC700090E0E0EDF7E03197F1F7019684369105E9
:10EC8000C1F72F9A80E090E0E0EDF7E03197F1F7DF
:10EC9000019684369105C1F78091C00087FFE6CFC9
:10ECA0008091C00087FFFCCF64C485EA92EE62E0E9
:10ECB0000F94F5F140910202509103026091040219
:10ECC0007091050281E020E10F9491F2809102029F
:10ECD00090910302A0910402B091050280509F4FD1
:10ECE000AF4FBF4F8093020290930302A0930402A0
:10ECF000B093050280509041A040B04008F426CE69
:10ED0000A4CF83EB92EE62E00F94F5F140910602FE
:10ED100050910702609108027091090280E020E1A1
:10ED20000F9491F28091060290910702A09108023F
:10ED3000B091090280509F4FAF4FBF4F80930602A2
:10ED400090930702A0930802B0930902FFCD80ECD4
:10ED500092EE62E00F94F5F183E792EE60E00F949B
:10ED6000F5F18FE792EE60E00F94F5F18BE892EE0B
:10ED700060E00F94F5F189E992EE60E00F94F5F10F
:10ED800085EA92EE60E00F94F5F183EB92EE60E09D
:10ED90000F94F5F180EC92EE60E00F94F5F187ECC2
:10EDA00092EE60E00F94F5F188ED92EE60E00F9442
:10EDB000F5F18FED92EE60E00F94F5F18AEE92EEB0
:10EDC00060E00F94F5F183E093EEBDCD87EC92EE19
:10EDD00062E00F94F5F181E40F947BF282E40F94EA
:10EDE0007BF283E40F947BF284E40F947BF285E45E
:10EDF0000F947BF286E40F947BF287E40F947BF20E
:10EE000088E40F947BF28AE40F947BF28BE40F94F6
:10EE10007BF28CE40F947BF299CD88ED92EE62E068
:10EE20000F94F5F1772473948824992409C48FED05
:10EE300092EE62E00F94F5F140910A0250910B02BC
:10EE400060910C0270910D0282E020E10F9491F22A
:10EE500080910A0290910B02A0910C02B0910D02D8
:10EE600080509F4FAF4FBF4F80930A0290930B0289
:10EE7000A0930C02B0930D0269CD8AEE92EE62E08F
:10EE80000F94F5F184EE90EE60E00F94F5F18FECC5
:10EE900091EE60E00F94F5F1662477244301CC5D98
:10EEA000DE4F19821882C452D140D401C301B695F5
:10EEB000A79597958795CA5DDE4F88839983AA8326
:10EEC000BB83C652D140CC5DDE4FA881B981C4520C
:10EED000D1401196CC5DDE4FB983A883C452D14096
:10EEE000CD0162E070E00F9434F2B0E2B093C6005E
:10EEF0008091C00086FFFCCF8091C0008064809329
:10EF0000C000EDE2E093C6008091C00086FFFCCF18
:10EF10008091C00080648093C000F0E2F093C6004E
:10EF20008091C00086FFFCCF8091C00080648093F8
:10EF3000C000CA5DDE4FE880F9800A811B81C6529D
:10EF4000D140BB27A12F902F8F2D0F940DF2CA5DBA
:10EF5000DE4F8881C652D1400F940DF2B0E2FB2EF5
:10EF6000F092C6008091C00086FFFCCF8091C00067
:10EF700080648093C0000DE30093C6008091C000C0
:10EF800086FFFCCF8091C00080648093C00010E2B7
:10EF90001093C6008091C00086FFFCCF8091C00016
:10EFA00080648093C0008BBEF3012791C65DDE4F65
:10EFB0002883CA52D140A22EBB24CC24DD2408943D
:10EFC000611C711C811C911C8BBEF3018791282E42
:10EFD0003324442455240894611C711C811C911C09
:10EFE0008BBEF3013791C55DDE4F3883CB52D140E4
:10EFF0000894611C711C811C911C8BBEF30147910C
:10F00000C45DDE4F4883CC52D140ADEFEA2EAFEF66
:10F01000FA2EAFEF0A2FAFEF1A2F6E0C7F1C801E57
:10F02000911E142D032DF22CEE24EA0CFB1C0C1D5A
:10F030001D1D0F940DF220E22093C6008091C000A8
:10F0400086FFFCCF8091C00080648093C000C65DC5
:10F05000DE4F8881CA52D1400F940DF230E23093D6
:10F06000C6008091C00086FFFCCF8091C000806404
:10F070008093C000C45DDE4F8881CC52D1400F9494
:10F080000DF240E24093C6008091C00086FFFCCFA5
:10F090008091C00080648093C000C55DDE4F888190
:10F0A000CB52D1400F940DF250E25093C6008091A4
:10F0B000C00086FFFCCF8091C00080648093C000B8
:10F0C0008FEFE8168FEFF80680E0080780E018075A
:10F0D00031F484E092EE60E00F94C2F1DFC0D80119
:10F0E000C7018070907CA070B0708050904CA040A0
:10F0F000B040D1F52FEF3FE340E050E0E222F322B1
:10F1000004231523CA5DDE4FA880B980CA80DB8046
:10F11000C652D140AE0CBF1CC01ED11EAA0CBB1CD7
:10F12000CC1CDD1C8EE092EE60E00F94C2F1BB2798
:10F13000A12F902F8F2D0F940DF28E2D0F940DF285
:10F1400030E23093C6008091C00086FFFCCF8091F2
:10F15000C00080648093C0004EE34093C60080915D
:10F16000C00086FFFCCF87C08EE09EEFA0E0B0E03D
:10F17000E822F9220A231B239CE0E91694E9F90608
:10F1800090E0090790E0190709F088C0C45DDE4FE0
:10F19000A881CC52D140EA2EFF2400E010E0102FCD
:10F1A0000F2DFE2CEE24C55DDE4FB881CB52D14031
:10F1B000EB0EF11C011D111DD601C501817090706F
:10F1C000A070B070DC0199278827E80EF91E0A1F8D
:10F1D0001B1F20EF30E040E050E0A222B322C42207
:10F1E000D52241E1AA0CBB1CCC1CDD1C4A95D1F7F1
:10F1F000EA0CFB1C0C1D1D1D81E090E0A0E0B0E0BE
:10F20000282239224A225B2235E1220C331C441C7D
:10F21000551C3A95D1F7E20CF31C041D151D57013E
:10F220006801AA0CBB1CCC1CDD1C85E192EE60E0E1
:10F230000F94C2F1C801AA27BB270F940DF2BB2778
:10F24000A12F902F8F2D0F940DF28E2D0F940DF274
:10F2500090E29093C6008091C00086FFFCCF809121
:10F26000C00080648093C000AEE3A093C60080918C
:10F27000C00086FFFCCF8091C00080648093C000F6
:10F28000C601AA27BB270F940DF2BB27AD2D9C2DDD
:10F290008B2D0F940DF28A2D0F940DF20F94DCF14B
:10F2A000CC5DDE4FE881F981C452D140F99709F471
:10F2B0004DCBF4E0EF2EF12C012D112D6E0C7F1CA7
:10F2C000801E911EF2CD83E093EE62E00F94F5F183
:10F2D0008AE192EE60E00F94C2F18091C00087FF56
:10F2E000FCCF1091C6001F751093C6008091C0001E
:10F2F00086FFFCCF8091C00080648093C0000F9493
:10F30000DCF1812F81548A3108F036C1163409F4BA
:10F3100095C0173490F4133409F44EC0143430F40B
:10F320001134F1F0123409F01DC130C0143409F465
:10F3300059C0153409F016C16BC01A3409F4C4C0A1
:10F340001B3438F4173409F48FC0183409F00AC19B
:10F35000A1C01B3409F4D2C01C3409F003C1E8C0B9
:10F360008FEF81B90DC082B1809582B980E090E0C5
:10F37000E0EDF7E03197F1F70196883C9105C1F790
:10F380008091C00087FFEFCF12B8EFC08FEF84B934
:10F390000DC085B1809585B980E090E0E0EDF7E0A3
:10F3A0003197F1F70196883C9105C1F78091C00033
:10F3B00087FFEFCF15B8D9C08FEF87B90DC088B1DF
:10F3C000809588B980E090E0E0EDF7E03197F1F7C3
:10F3D0000196883C9105C1F78091C00087FFEFCF6F
:10F3E00018B8C3C08FEF8AB90DC08BB180958BB9A7
:10F3F00080E090E0E0EDF7E03197F1F70196883C8E
:10F400009105C1F78091C00087FFEFCF1BB8ADC059
:10F410008FEF8DB90DC08EB180958EB980E090E0F0
:10F42000E0EDF7E03197F1F70196883C9105C1F7DF
:10F430008091C00087FFEFCF1EB897C08FEF80BBD1
:10F440000DC081B3809581BB80E090E0E0EDF7E0F6
:10F450003197F1F70196883C9105C1F78091C00082
:10F4600087FFEFCF11BA81C08FEF83BB0DC084B38C
:10F47000809584BB80E090E0E0EDF7E03197F1F714
:10F480000196883C9105C1F78091C00087FFEFCFBE
:10F4900014BA6BC08FEF809301010FC080910201FD
:10F4A00080958093020180E090E0E0EDF7E03197F5
:10F4B000F1F70196883C9105C1F78091C00087FF64
:10F4C000EDCF1092020151C08FEF809304010FC065
:10F4D0008091050180958093050180E090E0E0ED4A
:10F4E000F7E03197F1F70196883C9105C1F78091DB
:10F4F000C00087FFEDCF1092050137C08FEF8093DA
:10F5000007010FC08091080180958093080180E079
:10F5100090E0E0EDF7E03197F1F70196883C910536
:10F52000C1F78091C00087FFEDCF109208011DC088
:10F530008FEF80930A010FC080910B01809580931B
:10F540000B0180E090E0E0EDF7E03197F1F70196F4
:10F55000883C9105C1F78091C00087FFEDCF1092E4
:10F560000B0103C085E292EEEEC98091C00087FFD7
:10F57000FCCF8091C600EAC988E392EEE4C98CE131
:10F5800091EEE1C988249924933011F1943028F444
:10F59000913089F09230B8F408C0953061F195301F
:10F5A000F0F0963009F048C043C02B3109F042C951
:10F5B00091E06BE13FC96227C15DDE4F2883CF52E6
:10F5C000D14092E037C9B22FA0E0622793E032C960
:10F5D000822F90E0A82BB92B622794E02BC92E3004
:10F5E00009F039C3622795E0C05DDE4F19821882A9
:10F5F000C053D1401FC9E1E0F0E0EC0FFD1FC05D3A
:10F60000DE4F08811981C053D140E00FF11F2083E4
:10F610000F5F1F4FC05DDE4F19830883C053D14079
:10F6200062270A171B0709F005C9D80196E002C92D
:10F63000261709F010C303C0973009F0FBC87724E0
:10F640009981933109F412C19431C8F4963009F4C8
:10F65000D8C0973050F4923009F406C1933009F4C1
:10F660006DC0913009F059C253C0913109F477C08F
:10F67000923108F0BBC0903109F04FC2F5C098310B
:10F6800009F487C0993150F4953109F4EFC09531F0
:10F6900008F4C6C1963109F040C2C2C19A3109F4DA
:10F6A0006CC09A3108F491C09B3109F45BC09D3164
:10F6B00009F033C29D81903359F48F81882311F46E
:10F6C0009EE11CC0813011F091E018C098E916C08D
:10F6D000892F807591F0903539F4E0E0F0E089E011
:10F6E0008093570094910AC0983539F4E3E0F0E034
:10F6F00089E080935700949101C090E01A821B82A8
:10F700008D818C831D829E831F8227E030E009C299
:10F710001A8288E08B8381E48C8386E58D8382E581
:10F720008E8389E48F8383E5888780E589878FE5E9
:10F730008A8782E38B872BE030E0F3C18A818139AD
:10F7400041F0823941F0803911F48FE005C080E04A
:10F7500003C082E001C08AE01A828B8344C0772410
:10F76000739482C08D81882311F48EE12CC0813086
:10F7700011F081E028C088E926C01A82E1E0F0E0BB
:10F7800089E08093570084918B831C8224E030E0D1
:10F79000C8C18B81803589F48C81883039F4E2E0EE
:10F7A000F0E089E08093570084910DC0E0E0F0E044
:10F7B00089E080935700849106C0E3E0F0E089E09F
:10F7C0008093570084911A82DFCF8D81836C99E0FA
:10F7D000E1E0F0E0082E90935700E89507B600FCB2
:10F7E000FDCF1A821B8223E030E09BC180EC8A832C
:10F7F000CE5CDE4F188219821A821B82C253D1401E
:10F800008EC18A8190E0A0E0B0E0582F44273327D2
:10F8100022278B8190E0A0E0B0E0DC0199278827C7
:10F82000282B392B4A2B5B2B8D8190E0A0E0B0E098
:10F83000282B392B4A2B5B2B8C8190E0A0E0B0E089
:10F84000BA2FA92F982F8827282B392B4A2B5B2BCF
:10F85000220F331F441F551FC05EDE4F288339839C
:10F860004A835B83C052D1401A8259C13A81C95C34
:10F87000DE4F3883C753D140CA5CDE4F1882C6536F
:10F88000D1408B81C82EDD24CA5CDE4F488159816E
:10F89000C653D140C42AD52A933109F082C0CE5C28
:10F8A000DE4F88819981AA81BB81C253D1408050AB
:10F8B000904CA340B04030F583E0CE5CDE4FE88052
:10F8C000F9800A811B81C253D140F70100935B008C
:10F8D00080935700E89507B600FCFDCFCE5CDE4F65
:10F8E000088119812A813B81C253D14000501F4FAA
:10F8F0002F4F3F4FCE5CDE4F088319832A833B8313
:10F90000C253D140C05EDE4F488159816A817B81FC
:10F91000C052D140DE011B9631E08C9111962C91A2
:10F9200011971296C75CDE4F2883C953D140C85C3B
:10F93000DE4F1882C853D14090E0C85CDE4FE881AA
:10F94000F981C853D1408E2B9F2B0C01FA01609393
:10F950005B0030935700E89511244E5F5F4F6F4F67
:10F960007F4F0EEFE02E0FEFF02ECE0CDF1CC114F8
:10F97000D10499F685E0C05EDE4F088119812A81A5
:10F980003B81C052D140F80120935B008093570027
:10F99000E89507B600FCFDCF81E180935700E8951C
:10F9A00035C0C05EDE4F88819981AA81BB81C0527B
:10F9B000D140B695A795979587957C018601ABE0D8
:10F9C000AA2EB12CAC0EBD1E0BC0D5016D915D01F0
:10F9D000C7010F947FFE0894E11CF11C01501040F8
:10F9E0000115110591F7A60160E070E0440F551F65
:10F9F000661F771FC05EDE4FE880F9800A811B8199
:10FA0000C052D1404E0D5F1D601F711F1A82C05E33
:10FA1000DE4F488359836A837B83C052D1407FC0C5
:10FA2000FA80C55CDE4FF882CB53D140C65CDE4F16
:10FA30001882CA53D1408B81C82EDD24C65CDE4FAC
:10FA400008811981CA53D140C02AD12A1A828981DA
:10FA5000BE016D5F7F4F843121F59601C05EDE4FA0
:10FA6000E880F9800A811B81C052D1400BBFF701A9
:10FA700087919691DB018C9311969C936E5F7F4FDB
:10FA8000D801C7010296A11DB11DC05EDE4F88835B
:10FA90009983AA83BB83C052D14022503040F1F6F3
:10FAA00036C0C05EDE4F288139814A815B81C052F9
:10FAB000D1400894C108D108760100E010E0089414
:10FAC000C11CD11C0894E11CF11C011D111DE20E8A
:10FAD000F31E041F151F21BDBB27A52F942F832FB5
:10FAE00082BD2F5F3F4F4F4F5F4FF89A80B5DB01CC
:10FAF0008D93BD012E153F054007510761F7C05E8C
:10FB0000DE4F288339834A835B83C052D1409601FC
:10FB10002D5F3F4FFB01108204C080EC8A8322E0FE
:10FB200030E08BE18093C6008091C00086FFFCCF5F
:10FB30008091C00080648093C000C15DDE4FF88179
:10FB4000CF52D140F093C6008091C00086FFFCCF19
:10FB50008091C00080648093C000432F3093C60022
:10FB60008091C00086FFFCCF8091C00080648093AC
:10FB7000C000922F2093C6008091C00086FFFCCF6A
:10FB80008091C00080648093C0008EE08093C600A6
:10FB90008091C00086FFFCCF8091C000806480937C
:10FBA000C00065E1C15DDE4FE880CF52D1406E25D7
:10FBB00069276427FE01319610C090819093C6009A
:10FBC0008091C00086FFFCCF31968091C000806498
:10FBD0008093C0006927215030402115310569F715
:10FBE0006093C6008091C00086FFFCCF8091C0006A
:10FBF00080648093C00085B1805885B9772081F4F6
:10FC0000C15DDE4F0881CF52D1400F5FC15DDE4F35
:10FC10000883CF52D14090E0A0E0B0E00D941AF4F8
:10FC200027982F9880E090E020ED37E0F901319798
:10FC3000F1F7019684369105C9F700008091C00064
:10FC40008D7F8093C00081E180935700E895EE2777
:10FC5000FF270994FFCF90E00D941AF497FB092E2B
:10FC600007260AD077FD04D02ED006D000201AF443
:10FC7000709561957F4F0895F6F7909581959F4F08
:10FC80000895A1E21A2EAA1BBB1BFD010DC0AA1FDD
:10FC9000BB1FEE1FFF1FA217B307E407F50720F0F5
:10FCA000A21BB30BE40BF50B661F771F881F991F70
:10FCB0001A9469F760957095809590959B01AC01B9
:10FCC000BD01CF010895AA1BBB1B51E107C0AA1FAC
:10FCD000BB1FA617B70710F0A61BB70B881F991FED
:10FCE0005A95A9F780959095BC01CD010895F99991
:10FCF000FECF92BD81BDF89A992780B50895262F31
:10FD0000F999FECF1FBA92BD81BD20BD0FB6F89400
:0EFD1000FA9AF99A0FBE01960895F894FFCF63
:040000033000E000E9
:00000001FF