:10000000F5C0000024C1000022C1000020C1000092
:100010001EC100001CC100001AC1000018C1000070
:1000200016C1000014C1000012C1000010C1000080
:100030000EC100000CC100000AC1000008C1000090
:1000400006C100000C94500E02C1000000C1000067
:10005000FEC00000FCC00000FAC000000C945C0C64
:10006000F6C000000C94260C0C94FC0BF0C00000B1
:10007000EEC00000ECC00000EAC00000E8C00000D4
:100080000C94230EE4C00000E2C00000E0C00000B9
:10009000DEC00000DCC00000DAC000000C94A60C3A
:1000A000D6C00000D4C000000C94F60DD0C00000F3
:1000B000CEC00000CCC00000CAC000000C94C90D26
:1000C000C6C00000C4C00000C2C00000C0C0000024
:1000D000BEC00000BCC00000BAC00000B8C0000034
:1000E000B6C0000000002100240027002A002D00D7
:1000F0003000330001010000040107010A01000083
:100100002200250028002B002E00310034000201BF
:100110000000050108010B01050505050705080894
:100120000808020202020A0A080804040404010181
:100130000101010101010303030303030303040796
:1001400007070C0C0C0C0C0C0C0C0202020206062D
:100150000606060606060B0B0B0B0B0B0B0B010220
:1001600010202008081020401020408002010201C9
:100170000804020101020408102040808040201081
:1001800008040201800402018040201008040201DA
:100190000804020101020408102040800102040842
:1001A0001020408000000A0B02090C0D0E08070306
:1001B000040100000000000000000000000000003A
:1001C000000000000000000000000000000000002F
:1001D00012111000000000000000000000000000EC
:1001E000000000000000000000007D0E11241FBE72
:1001F000CFEFD1E2DEBFCDBF00E00CBF12E0A0E048
:10020000B2E0E2E4F7E200E00BBF02C007900D921B
:10021000A638B107D9F725E0A6E8B2E001C01D92E3
:10022000A630B207E1F710E0C6EFD0E000E006C06C
:1002300021970109802FFE010E944B13C53FD10772
:1002400080E00807A9F70E94420F0C949F13D8CEB4
:10025000E9E5F3E0A089B18982E08C93A485B585B6
:100260001C92A685B7858FEC8C93108EA489B589D6
:1002700086E08C93A289B3898C9180618C93A2894A
:10028000B3898C9188608C93A289B3898C918068A2
:100290008C930288F389E02D80818F7D808308957F
:1002A000AF92BF92CF92DF92EF92FF920F931F9384
:1002B000CF93DF936C017B018B01040F151FEB01C2
:1002C0005E01AE18BF08C017D10759F06991D60179
:1002D000ED91FC910190F081E02DC6011995892BDB
:1002E00079F7C501DF91CF911F910F91FF90EF90AA
:1002F000DF90CF90BF90AF9008950895089508952E
:10030000FC01538D448D252F30E0842F90E0821B1B
:10031000930B541710F0CF96089501970895FC01A0
:10032000918D828D981761F0A28DAE0FBF2FB11DF8
:100330005D968C91928D9F5F9F73928F90E0089550
:100340008FEF9FEF0895FC01918D828D981731F00A
:10035000828DE80FF11D858D90E008958FEF9FEF5E
:100360000895FC01918D228D892F90E0805C9F4F34
:10037000821B91098F739927089589E593E0F1DF36
:1003800021E0892B09F420E0822F0895FC01A48D3F
:10039000A80FB92FB11DA35ABF4F2C91848D90E0A7
:1003A00001968F739927848FA689B7892C93A0898A
:1003B000B1898C91837080648C93938D848D981314
:1003C00006C00288F389E02D80818F7D80830895A7
:1003D000EF92FF920F931F93CF93DF93EC0181E095
:1003E000888F9B8D8C8D98131AC0E889F98980813C
:1003F00085FF15C09FB7F894EE89FF896083E8896F
:10040000F98980818370806480839FBF81E090E060
:10041000DF91CF911F910F91FF90EF900895F62EED
:100420000B8D10E00F5F1F4F0F731127E02E8C8D87
:100430008E110BC00FB607FCFACFE889F9898081CD
:1004400085FFF5CFCE01A2DFF2CFEB8DEC0FFD2FB4
:10045000F11DE35AFF4FF0829FB7F8940B8FEA89A2
:10046000FB8980818062D0CFCF93DF93EC01888DB0
:100470008823B1F0AA89BB89E889F9898C9185FD27
:1004800003C0808186FD0CC00FB607FCF7CF8C91AE
:1004900085FFF2CF808185FFEDCFCE0177DFEACFF8
:1004A000DF91CF91089580E090E0892B21F065DF06
:1004B00081110E94000080E090E0892B49F080E0EB
:1004C00090E0892B29F00E94000081110E94000019
:1004D00080E090E0892B49F080E090E0892B29F0C2
:1004E0000E94000081110E94000080E090E0892BB2
:1004F00049F080E090E0892B29F00E9400008111F2
:100500000C9400000895282F30E0F901EC55FE4FBF
:100510009491F901E25AFE4F4491285E3E4FF90151
:100520002491222309F435C0992311F1915092317D
:10053000F8F4E92FF0E08827EF55FD4F8F4F0C942A
:100540004B13D202D602B302CA02CE02B802D902BB
:10055000DF02E302E902ED02F102F702FB02B80258
:10056000FF0205030903809180008F77809380004C
:10057000E22FF0E0EE0FFF1FE250FF4FA591B49184
:100580008FB7F894EC91611148C040954E234C937D
:100590008FBF0895809180008F7DE8CF809180008B
:1005A000877FE4CF84B58F7784BDE2CF84B58F7D1C
:1005B000FBCF8091B0008F778093B000D9CF80912E
:1005C000B0008F7DF9CF809190008F77809390005D
:1005D000CFCF809190008F7DF9CF80919000877F61
:1005E000F5CF8091A0008F778093A000C1CF80913C
:1005F000A0008F7DF9CF8091A000877FF5CF8091FB
:1006000020018F7780932001B3CF809120018F7DCF
:10061000F9CF80912001877FF5CF4E2BB8CFCF93B4
:10062000DF9390E0FC01E25AFE4F2491885E9E4FDA
:10063000FC0184918823D1F090E0880F991FFC0180
:10064000EC51FF4FA591B491FC01E250FF4FC591D1
:10065000D49161110EC09FB7F8948C91E22FE09570
:100660008E238C932881E223E8839FBFDF91CF9173
:1006700008958FB7F894EC91E22BEC938FBFF6CFEF
:1006800020917B00982F987F277F922B90937B005F
:100690008770806480937C0080917A00806480936E
:1006A0007A0080917A0086FDFCCF8091780090914D
:1006B000790008953FB7F8948091DB029091DC02B5
:1006C000A091DD02B091DE0226B5A89B05C02F3FA8
:1006D00019F00196A11DB11D3FBFBA2FA92F982F68
:1006E0008827BC01CD01620F711D811D911D42E063
:1006F000660F771F881F991F4A95D1F708958F922B
:100700009F92AF92BF92CF92DF92EF92FF924B01F6
:100710005C01D0DF6B017C01CDDF6C197D098E0996
:100720009F09683E734081059105B0F321E0821A6C
:100730009108A108B10888EEC80E83E0D81EE11C1C
:10074000F11C81149104A104B10431F7FF90EF90E2
:10075000DF90CF90BF90AF909F908F9008952FB76C
:10076000F8946091D7027091D8028091D90290914B
:10077000DA022FBF0895CF92DF92EF92FF926115B8
:10078000710581059105F1F0DC01CB010197A1090B
:10079000B10930E020E06C017D01CC24CD28CE28C9
:1007A000CF2839F0B695A795979587952F5F3F4F3E
:1007B000F2CF322F2227822B932BFF90EF90DF90E6
:1007C000CF90089590E080E0F8CFDC01ED91FC91AE
:1007D0000190F081E02D1994DC01ED91FC910190E4
:1007E000F081E02D642F19942091B302260F332756
:1007F000331F21323105ECF420912F03FC0190E0EE
:1008000080E0243069F082E00895A091B302219144
:10081000AC014D565D4FA40FB52FB11D2C93019621
:10082000861798F38091B302680F6093B30280E05B
:10083000089581E0089510922F0381E080932E03A4
:100840001092090361E084E15EDE61E085E15BDE38
:10085000E9EBF0E080818E7F808380818D7F8083D3
:1008600088E48093B80085E48093BC000895CF931A
:10087000DF9391E0909392028823A1F0C091B80099
:10088000D091BA008091BC008A7B8093BC0060E06C
:1008900084E139DE60E085E136DECDDFD093BA0059
:1008A000C093B800DF91CF9108958F929F92AF923D
:1008B000BF92CF92DF92EF92FF920F931F93CF934D
:1008C000DF93D0915803D13208F0D0C0182FC091D7
:1008D0005703F0DE6B017C0180912F03811168C00A
:1008E00082E080932F0310932E038FEF80932D03CC
:1008F00010922C03D0932B03A7E3B3E0EBE0F3E0DB
:1009000080E0D8138CC010920A0380910A03CC0FA8
:10091000C82BC0930A0380910903813009F083C07A
:1009200010920903C7DE6B017C0180910A0380935A
:10093000BB008091310390913203A0913303B091B9
:100940003403892B8A2B8B2B99F0B4DE0091310371
:100950001091320320913303309134036C197D09D7
:100960008E099F09061717072807390708F440C0A2
:100970008091BC0083FDD9CF85EC8093BC009ADECA
:100980006B017C0180912F03823009F44EC080916D
:100990002D038F3F09F46CC080912D03803209F440
:1009A00069C080912D03803309F466C084E024C0BF
:1009B0008091310390913203A0913303B0913403BD
:1009C000892B8A2B8B2B09F487CF74DE809031031F
:1009D00090903203A0903303B09034036C197D09DA
:1009E0008E099F0986169706A806B90608F074CFE7
:1009F000809130033CDF85E010923603109258035B
:100A000010923503DF91CF911F910F91FF90EF90DE
:100A1000DF90CF90BF90AF909F908F9008959D9161
:100A200091938F5F6ECF85EEA8CF80913103909127
:100A30003203A0913303B0913403892B8A2B8B2B83
:100A400009F4A0CF37DE00913103109132032091D9
:100A50003303309134036C197D098E099F09061701
:100A600017072807390708F08DCFC2CF81E0C4CF20
:100A700080E0C2CF82E0C0CF83E0BECFEF92FF9292
:100A80001F93CF93DF937C01162FC9EDD4E08E899D
:100A90009F89288D31E030933503209357031092BE
:100AA00036031092580370E060E08FDEB7018E8944
:100AB0009F898BDE8E899F89DC01ED91FC910190ED
:100AC000F081E02D612F199581E0EFDE8B87DF91BA
:100AD000CF911F91FF90EF900895EF92FF920F93A7
:100AE0001F93CF93DF937C018B01C9EDD4E08E89F6
:100AF0009F89288D31E0309335032093570310925E
:100B000036031092580370E060E05FDEB7018E8913
:100B10009F895BDE612F70E08E899F8956DEB80168
:100B200077278E899F8951DE81E0BFDE8B87DF9139
:100B3000CF911F910F91FF90EF900895CF92DF9288
:100B4000EF92FF920F931F93CF93DF93D82FC62F6F
:100B5000613208F092C0AEDD6B017C0180912F0301
:100B6000811168C081E080932F0380932E039FEF53
:100B700090932D0310922C039C0F90932B03809342
:100B80000A0380910A03DD0FD82BD0930A038091CA
:100B90000903813009F073C0109209038BDD6B01EA
:100BA0007C0180910A038093BB0080913103909176
:100BB0003203A0913303B0913403892B8A2B8B2B02
:100BC00099F078DD009131031091320320913303C5
:100BD000309134036C197D098E099F090617170798
:100BE0002807390708F446C08091BC0083FDD9CF9F
:100BF00085EC8093BC005EDD6B017C0180912F034E
:100C0000813009F43EC080912C038C1710F4C09100
:100C10002C03EBE0F3E0A9EEB2E080E08C1352C0CD
:100C20008C2FDF91CF911F910F91FF90EF90DF906C
:100C3000CF9008958091310390913203A0913303B6
:100C4000B0913403892B8A2B8B2B09F487CF32DDAB
:100C5000009131031091320320913303309134031A
:100C60006C197D098E099F09061717072807390790
:100C700008F074CF80913003FADDC0E0D1CF85EE6B
:100C8000B8CF8091310390913203A0913303B0919A
:100C90003403892B8A2B8B2B09F4B0CF0BDD009109
:100CA00031031091320320913303309134036C19D6
:100CB0007D098E099F09061717072807390708F0CD
:100CC0009DCFD8CF91919D938F5FA8CFE091E802FF
:100CD0008091E702E81730F4F0E0E751FD4F8081A2
:100CE00090E008958FEF9FEF08959091E802809132
:100CF000E7022FEF3FEF981748F4E92FF0E0E751B4
:100D0000FD4F208130E09F5F9093E802C901089574
:100D10008091E7029091E802891B990B0895CF9288
:100D2000DF92EF92FF920F931F93CF93DF937C019B
:100D3000CB018A0120913503222389F0EB016B015D
:100D4000C40ED51ECC15DD0561F06991D701ED917A
:100D5000FC910190F081E02DC7011995F3CF642F2C
:100D600043DDC801DF91CF911F910F91FF90EF906C
:100D7000DF90CF900895CF93DF931F92CDB7DEB76A
:100D80006983209135032223F9F020915803203202
:100D900058F021E030E0FC013383228390E080E0D2
:100DA0000F90DF91CF91089580913603E82FF0E006
:100DB000E95CFC4F998190838F5F80933603809329
:100DC000580381E090E0ECCF61E0CE0101960CDDAC
:100DD000F8CF90E080E00895AF92BF92CF92DF927B
:100DE000EF92FF920F931F93CF93DF936B017A01E2
:100DF000EC01C257DD4F28813CE0389F8001399FCC
:100E0000100D1124A090D804B12C27FF1FC0FB01A6
:100E10001182108288818F5F888388819801280FD2
:100E2000311D87FD3A95F6012A153B051CF4888192
:100E30008C30BCF180819181049680349C4908F407
:100E400071C0F6018081918104966EC088819801FD
:100E5000280F311D87FD3A952A153B05DCF6888160
:100E6000A801480F511D87FD5A95FA01EE0FFF1F8B
:100E7000E40FF51FE85BFB4F808186FFCBCF8881B5
:100E8000F801E80FF11D87FDFA95CF01EE0FFF1F66
:100E9000E80FF91FE85BFB4F808160E08F7333DB65
:100EA000B9CF808191812881A801420F511D27FD72
:100EB0005A959A01FA01EE0FFF1FE20FF31FE85B4C
:100EC000FB4F21813281820F931FF7019183808331
:100ED00088819801280F311D87FD3A95F901EE0FA1
:100EE000FF1FE20FF31FE85BFB4F808186FF21C0ED
:100EF0008881080F111D87FD1A95F801EE0FFF1F5D
:100F0000E00FF11FE85BFB4F808161E08F73DF91A1
:100F1000CF911F910F91FF90EF90DF90CF90BF90F6
:100F2000AF90F1CA80E49CE9F701918380838FEF51
:100F30008883DF91CF911F910F91FF90EF90DF9009
:100F4000CF90BF90AF900895AF92BF92CF92DF92B3
:100F5000EF92FF920F931F93CF93DF936417750760
:100F600084F088539F4FFC0180819181DF91CF9164
:100F70001F910F91FF90EF90DF90CF90BF90AF90B7
:100F80000895FB01EE0FFF1FE80FF91F008111818B
:100F90009A01EB01D901AA0FBB1FA80FB91FED9051
:100FA000FC901197E016F106ECF0215031091297F0
:100FB000C217D307A4F37A016C01FE01EE0FFF1FE5
:100FC000E80FF91F11830083AE0141505109BCDFC6
:100FD000BE016F5F7F4FA701C601B6DFF601E85380
:100FE000FF4FC2CF5E01AA0CBB1C6C01CA0CDB1CFC
:100FF000F601F182E0827E01FFEFEF1AFF0AF501B0
:1010000032965F01A80EB91EE701E216F3069CF6C0
:10101000F501C190D1905F01FFEFEF1AFF0A0C15A7
:101020001D0594F721503109CD92DC92C217D307E8
:101030000CF4B0CFC0CF0F931F93CF93DF938C01ED
:10104000C9EDD4E08E899F89288D31E03093350336
:10105000209357031092360310925803612F70E0CB
:10106000B4DBB80177278E899F89AFDB81E01DDC77
:101070008B8762E0888D62DD1092E8028093E70240
:101080008E899F89DC01ED91FC910284F385E02D2E
:10109000199500E0182F8E899F89DC01ED91FC9154
:1010A0000284F385E02D1995802B912BDF91CF9150
:1010B0001F910F9108950F931F93CF93DF938C018E
:1010C000C9EDD4E08E899F89288D31E030933503B6
:1010D00020935703109236031092580370E060E09B
:1010E00074DBB8018E899F8970DB81E0DEDB8B8742
:1010F00061E0888D23DD1092E8028093E7028E89FB
:101100009F89DC01ED91FC910284F385E02D199516
:10111000DF91CF911F910F9108954F925F926F923F
:101120007F928F929F92AF92BF92CF92DF92EF9277
:10113000FF926B017C0120EBC21A21E1D20AE10887
:10114000F10881EEC81688ECD80680E1E806F104C3
:1011500008F0DCC080E690E0AEDFB82E2091F70406
:101160003091F80450E040E060E070E080E090E40E
:101170000E941013A0E0B9E00E9432139B01AC0161
:10118000A6E05695479537952795AA95D1F7B3943C
:10119000BB0CAB2DB0E00E9432132B013C01B6E03A
:1011A0007694679457944794BA95D1F74B015C01B4
:1011B00087E0B694A794979487948A95D1F7C50150
:1011C000B4017058814C9F4FA30192010E941013EB
:1011D0002F3F31054105510529F020F02FEF30E078
:1011E00040E050E0622F8BE490E048DCC501B401A0
:1011F000705F8F4F9F4FA30192010E941013CA018D
:10120000B901B9DABC018AE590E067DCF694E794AD
:10121000D794C7949CE0CC0CDD1CEE1CFF1C9A9567
:10122000D1F7C501B4016C0D7D1D8E1D9F1DA3015D
:1012300092010E941013CA01B9019DDABC018EE52A
:1012400090E04BDC83E690E036DFB82E2091F70487
:101250003091F80450E040E060E070E080E090E41D
:101260000E941013A0E0B9E00E9432139B01AC0170
:1012700066E056954795379527956A95D1F7A1E091
:10128000AB0DAA0FB0E00E9432132B013C01E6E047
:101290007694679457944794EA95D1F74B015C0193
:1012A000F7E0B694A79497948794FA95D1F7C5017F
:1012B000B401705F8F4F9F4FA30192010E941013E2
:1012C000CA01B90158DABC018CE590E006DCC7011F
:1012D000B601680D791D8A1D9B1DA30192010E9414
:1012E0001013CA01B90147DABC0181E690E0F5DBD1
:1012F00081E0FF90EF90DF90CF90BF90AF909F90F4
:101300008F907F906F905F904F90089580E0F1CF25
:101310008F929F92AF92BF92CF92DF92EF92FF9205
:101320000F9380E690E0C7DEF82E2091F70430910D
:10133000F80450E040E060E070E080E090E40E945B
:101340001013A0E0B9E00E9432139B01AC0186E0CB
:1013500056954795379527958A95D1F7F394FF0CC5
:10136000AF2DB0E00E9432136B017C018EE590E05E
:1013700062DE9C01BC01772790E080E004C0660F2C
:10138000771F881F991F3A95D2F76F5F7F4F8F4F56
:101390009F4FA7019601E6E056954795379527950B
:1013A000EA95D1F70E945313385F4F4F5F4F6F4F4D
:1013B0007F4F8F4F9F4F0CE00E947C1349015A01D1
:1013C00088ED880E88E0981EA11CB11C880C991C21
:1013D000AA1CBB1C6FE080E690E050DB6DE083E66A
:1013E00090E04CDB68EB89E690E048DB6FE088E753
:1013F00090E044DB6DE089E790E040DB6EE08AE757
:1014000090E03CDB6EE08BE790E038DB81EB881608
:1014100081E19806A104B10418F0C501B4017DDE94
:1014200082E090E09093FF048093FE0481E00F91AE
:10143000FF90EF90DF90CF90BF90AF909F908F90F4
:101440000895FC0101900020E9F73197AF01481B96
:10145000590BBC0189E593E00C9450018F929F9247
:10146000AF92BF920F931F93CF93DF93CDB7DEB7A9
:10147000A1970FB6F894DEBF0FBECDBF19A24230C0
:1014800008F44AE08E010F5D1F4F842E912CB12C81
:10149000A12CA50194010E941013E62FB901CA01E5
:1014A000EA30ECF4E05DD801EE938D01232B242B80
:1014B000252B79F790E080E0109711F0CD01C1DF86
:1014C000A1960FB6F894DEBF0FBECDBFDF91CF91CE
:1014D0001F910F91BF90AF909F908F900895E95CFE
:1014E000E2CFCF92DF92EF92FF92CF93DF936C0126
:1014F000990FEE08FF08F7FE18C06DE289E593E04A
:101500000E94E801EC0166277727CB016C197D0961
:101510008E099F094AE0A2DF8C0F9D1FDF91CF91BA
:10152000FF90EF90DF90CF9008954AE0C701B60199
:10153000DF91CF91FF90EF90DF90CF908FCFCF933F
:10154000DF937FDFEC0184E292E07BDF8C0F9D1F55
:10155000DF91CF91089575CF2F923F924F925F9276
:101560006F927F928F929F92AF92BF92CF92DF92B3
:10157000EF92FF920F931F93CF93DF93CDB7DEB718
:10158000C854D6400FB6F894DEBF0FBECDBF82E977
:1015900091E09E012F5F3F4F7901F9019C0111926B
:1015A00021503040E1F71E013DE6231A3EEF330A99
:1015B000F1019C01119221503040E1F73E013BEDD9
:1015C000631A3CEF730AF3019C01119221503040E1
:1015D000E1F72E0139E4431A3BEF530AF2019C0173
:1015E000119221503040E1F787014101530162011E
:1015F00080E046D8F801819391938F0181E040D833
:10160000F401819391934F018EE03AD8F5018193D3
:1016100091935F018FE034D8F601819391936F012C
:101620000215130529F748EC50E070E060E0C701AF
:101630008BDC7C0190938D0280938C0248EC50E00F
:1016400070E060E0C80180DC90938B0280938A0296
:1016500048EC50E070E060E0C30176DC90938902D2
:101660008093880248EC50E070E060E0C2016CDCDE
:101670009093870280938602C70133DF87E292E06E
:101680006ADF80918A0290918B022BDF87E292E0E1
:1016900062DF809188029091890223DF87E292E0E5
:1016A0005ADF80918602909187021BDF87E292E0E9
:1016B00052DF90E080E015DF84E292E0C2DEC85B9A
:1016C000D94F0FB6F894DEBF0FBECDBFDF91CF91DB
:1016D0001F910F91FF90EF90DF90CF90BF90AF9050
:1016E0009F908F907F906F905F904F903F902F9042
:1016F00008951F93CF93DF9300D01F92CDB7DEB72D
:1017000089E593E00E948F0189E593E00E948F01B3
:1017100010E08A3379F0E1E0F0E0EC0FFD1FE10F1B
:10172000F11D17FDFA9580831F5F89E593E00E9404
:101730008F01EFCFCE0101964ED7182F89E593E0A8
:101740000E948F018053990B8230910520F4682FFD
:10175000812F0E94830289E593E00E948F018A30E5
:1017600011F08D30C1F789E593E00E94A3018A3022
:1017700021F489E593E00E948F010F900F900F9064
:101780000F90DF91CF911F91089585ED8093BC005C
:101790008091310390913203A0913303B0913403CF
:1017A0000796A11DB11D23E0B695A795979587953E
:1017B0002A95D1F72091BC0024FD03C010922F037D
:1017C0000895409131035091320360913303709139
:1017D0003403452B462B472B69F30097A105B10530
:1017E00041F025E32A95F1F700000197A109B1091D
:1017F000E1CF809130033BC81F920F920FB60F923A
:1018000011240BB60F922F933F934F935F936F93D7
:101810007F938F939F93AF93BF93EF93FF9389E54C
:1018200093E00E94C601FF91EF91BF91AF919F910C
:101830008F917F916F915F914F913F912F910F9079
:101840000BBE0F900FBE0F901F9018951F920F9216
:101850000FB60F9211240BB60F922F938F939F9375
:10186000EF93FF93E0916903F0916A038081E09127
:101870006F03F091700382FD1DC09081809172030F
:101880008F5F8F7320917303821741F0E091720391
:10189000F0E0E75AFC4F958F80937203FF91EF9130
:1018A0009F918F912F910F900BBE0F900FBE0F90B5
:1018B0001F9018958081F2CF1F920F920FB60F9252
:1018C00011242F933F938F939F93AF93BF93809156
:1018D000D7029091D802A091D902B091DA0230914A
:1018E000D60223E0230F2D3758F50196A11DB11D17
:1018F0002093D6028093D7029093D802A093D90266
:10190000B093DA028091DB029091DC02A091DD02BB
:10191000B091DE020196A11DB11D8093DB02909370
:10192000DC02A093DD02B093DE02BF91AF919F91E4
:101930008F913F912F910F900FBE0F901F90189590
:1019400026E8230F0296A11DB11DD2CF1F920F9240
:101950000FB60F9211240BB60F922F933F934F9314
:101960005F936F937F938F939F93AF93BF93EF9307
:10197000FF938091B900887F803609F44CC008F04D
:101980003FC0883209F4A8C028F5803109F49CC012
:10199000C8F4882309F4FAC0883009F495C0FF918F
:1019A000EF91BF91AF919F918F917F916F915F91D7
:1019B0004F913F912F910F900BBE0F900FBE0F9044
:1019C0001F901895883109F487C0803241F78093C1
:1019D0002D0314C0803409F49CC040F48033B9F363
:1019E0008833E9F680932D0385ECAFC0803509F488
:1019F00084C0883509F495C0883489F6C6DECFCF17
:101A0000883909F48CC038F5883729F050F48836C5
:101A100011F0803721F683E080932F031092D502D6
:101A200057C0883809F47BC0803919F0803809F034
:101A3000B6CF8091D502803208F071C0E091D50216
:101A400081E08E0F8093D5028091BB00F0E0EB54D3
:101A5000FD4F80833DC0803B39F0E0F4803A09F4CB
:101A600079C0883A09F09BCF84E080932F031092CD
:101A7000B4021092B302E091E102F091E2021995F2
:101A80008091B30281110FC081E08093B302109264
:101A9000930209C0803C09F4A7CF883C09F4A4CF85
:101AA000883B09F07CCFE091B40281E08E0F8093F7
:101AB000B402F0E0ED56FD4F80818093BB00909121
:101AC000B4028091B30229C080910A038093BB00C5
:101AD00085EC8093BC0063CF90912C0380912B0305
:101AE000981758F5E0912C0381E08E0F80932C031A
:101AF000F0E0E55FFC4F8081E9CFE0912C0381E0CD
:101B00008E0F80932C038091BB00F0E0E55FFC4FCB
:101B1000808390912C0380912B039817C8F285E85D
:101B2000D8CFE0912C0381E08E0F80932C0380911D
:101B3000BB00F0E0E55FFC4F808380912E038111B4
:101B40005DCF81E08093090384EA8093BC0010920A
:101B50002F0325CF85EC8093BC0010922F0380913A
:101B6000D502803230F4E091D502F0E0EB54FD4F25
:101B700010826091D50270E0E091DF02F091E00206
:101B800085EB92E019951092D50209CF10922D03A2
:101B900035CF1F920F920FB60F9211240BB60F92F2
:101BA0002F933F934F935F936F937F938F939F9365
:101BB000AF93BF93EF93FF9348E251E064E271E08B
:101BC00090E080E009D9FF91EF91BF91AF919F9193
:101BD0008F917F916F915F914F913F912F910F90D6
:101BE0000BBE0F900FBE0F901F9018951F920F9273
:101BF0000FB60F9211240BB60F922F933F934F9372
:101C00005F936F937F938F939F93AF93BF93EF9364
:101C1000FF9348EA50E064EA70E083E090E0DCD8AB
:101C2000FF91EF91BF91AF919F918F917F916F91B4
:101C30005F914F913F912F910F900BBE0F900FBE70
:101C40000F901F9018951F920F920FB60F921124AC
:101C50000BB60F922F933F934F935F936F937F93A6
:101C60008F939F93AF93BF93EF93FF9348E950E017
:101C700064E970E082E090E0AFD8FF91EF91BF910E
:101C8000AF919F918F917F916F915F914F913F9114
:101C90002F910F900BBE0F900FBE0F901F901895B5
:101CA0001F920F920FB60F9211240BB60F922F9323
:101CB0003F934F935F936F937F938F939F93AF93D4
:101CC000BF93EF93FF9348E850E064E870E081E051
:101CD00090E082D8FF91EF91BF91AF919F918F914A
:101CE0007F916F915F914F913F912F910F900BBE1C
:101CF0000F900FBE0F901F90189510925C031092DA
:101D00005B0388EE93E0A0E0B0E080935D039093E6
:101D10005E03A0935F03B093600324E032E030934E
:101D20005A032093590325EC30E030936603209347
:101D3000650324EC30E0309368032093670320ECC4
:101D400030E030936A032093690321EC30E0309354
:101D50006C0320936B0322EC30E030936E032093EE
:101D60006D0326EC30E03093700320936F031092E4
:101D70007203109273031092740310927503109201
:101D80003F0410923E048093400490934104A0933A
:101D90004204B093430486E192E090933D04809323
:101DA0003C041092FC031092FD031092FE0310926B
:101DB000FF0310920004109201041092020410928A
:101DC0000304109204041092050410920604109269
:101DD0000704109208041092090410920A04109249
:101DE0000B048091D804803308F044C091E0980F30
:101DF0009093D8048093030590E0FC01EE0FFF1F41
:101E0000E80FF91FE85BFB4F88EB9BE0928381832F
:101E10008091D804803390F591E0980F9093D80486
:101E20008093000590E0FC01EE0FFF1FE80FF91F03
:101E3000E85BFB4F88EB9BE0928381838CE394E02B
:101E40009093F0048093EF0489E28093F104109260
:101E5000F3041092F2041092F4041092FB04109216
:101E6000FC041092FD0483E090E09093FF048093C3
:101E7000FE0408958FEF80930305CACF8FEF809300
:101E80000005DCCF789484B5826084BD84B5816020
:101E900084BD85B5826085BD85B5816085BD809135
:101EA0006E00816080936E001092810080918100AD
:101EB00082608093810080918100816080938100A5
:101EC000809180008160809380008091B100846067
:101ED0008093B1008091B00081608093B0008091C8
:101EE0009100826080939100809191008160809345
:101EF0009100809190008160809390008091A1007A
:101F000082608093A1008091A10081608093A100F4
:101F10008091A00081608093A00080912101826067
:101F20008093210180912101816080932101809122
:101F3000200181608093200180917A0084608093E9
:101F40007A0080917A00826080937A0080917A0092
:101F5000816080937A0080917A00806880937A0013
:101F60001092C100109238041092390410923A0471
:101F700010923B041092F8031092F9031092FA03A6
:101F80001092FB030E94AF036B017C014B015C01CB
:101F900028EB820E2BE0921EA11CB11C0E94AF0305
:101FA0006C157D058E059F0528F086169706A806F8
:101FB000B906A0F768EE73E080E090E00E947F032E
:101FC0000E9428010E94AF036093F8037093F90305
:101FD0008093FA039093FB0389E292E0BCDA0E94BB
:101FE000AF036B017C014B015C013AE0830E911C55
:101FF000A11CB11C0E94AF036C157D058E059F05C9
:1020000028F086169706A806B906A0F781E0809307
:102010000C040E94AF036093F8037093F90380935C
:10202000FA039093FB038AE392E095DA0E94280179
:1020300081E492E084DA1092E8021092E7021092B2
:102040003603109258030E941B048EE791E0909390
:10205000E2028093E1028FE791E09093E0028093A7
:10206000DF028CE08093B80084EF91E09093F3045A
:102070008093F2048FE091E00E941B088C3C9A4E02
:10208000E1F560E090E080E00E943E058BE891E0A1
:102090000197F1F761E090E080E00E943E0561E089
:1020A00070E080E090E00E947F030E94AF03709395
:1020B000F6046093F50485EE90E00E945B0880FFD3
:1020C00004C08091E4048823E1F08091F2049091AF
:1020D000F304892B81F30E94AF032091F504309122
:1020E000F604621B730B8091F2049091F30486173F
:1020F000970708F781E08093F4048AE492E01FDAFE
:10210000FFCF8EE290E00E945B08682F61608EE254
:1021100090E00E943E0586E090E00E941B089093AC
:10212000F8048093F7048EED90E00E941B089093D2
:10213000FA048093F90460E07AE084E290E00E947F
:102140006D0562E081E390E00E943E0568E086E371
:1021500090E00E943E0560E187E390E00E943E052A
:1021600061E089E390E00E943E056FEF8EE390E02E
:102170000E943E0560E08FE390E00E943E0562E031
:1021800080E490E00E943E0570E060E080E590E031
:102190000E946D0570E060E082E590E00E946D05B0
:1021A00068E387E590E00E943E0568E671E084E61A
:1021B00090E00E946D0560EC70E086E690E00E9481
:1021C0006D0561E081E790E00E943E0561E08CE7EB
:1021D00090E00E943E0562E08EE790E00E943E059E
:1021E00060E082E890E00E943E0561E087E790E0D1
:1021F0000E943E056BE881E890E00E943E0560E0A9
:1022000078EC84E590E00E946D0562E08FE490E058
:102210000E943E057DD860E573EC80E090E00E946E
:102220008D0882E290E00E941B08BC01660F771FB8
:10223000660F771F8EE190E00E946D0569D860E51A
:1022400073EC80E090E00E948D082091F9043091B9
:10225000FA04A2E3B0E010D26B017C018091EF049C
:102260009091F0042091F10431E0309335032093F4
:102270005703109236031092580370E060E00E94FA
:10228000E5036CE670E08091EF049091F0040E9409
:10229000E50340E050E0BA018091EF049091F00432
:1022A0000E94EC03A701662777278091EF049091A5
:1022B000F0040E94EC034D2D50E070E060E080914E
:1022C000EF049091F0040E94EC03B701A60155279A
:1022D000662777278091EF049091F0040E94EC0329
:1022E00081E00E9455048093E40461E086E890E078
:1022F0000E943E0560E487E890E00E943E0561E0B0
:1023000084E00E940F0361E085E00E940F0361E01A
:1023100086E00E940F0361E087E00E940F0361E006
:1023200088E00E940F0361E089E00E940F0361E0F2
:102330008AE00E940F0361E08BE00E940F0360E0DF
:1023400086E30E940F0360E087E30E940F0360E0D2
:1023500084E40E940F0360E085E40E940F0360E0C4
:1023600086E10E940F0360E086E10E94830260E044
:1023700082E10E940F0360E082E10E94830260E03C
:1023800085E10E940F0360E085E10E94830260E026
:1023900081E20E940F0360E081E20E94830261E01B
:1023A00081E30E940F0360E082E30E940F0361E07B
:1023B00081E10E940F0360E080E10E940F0361E071
:1023C0008DE00E940F0324EF822E99249394A12C78
:1023D000B12C0E94AF03672B682B692B09F4E5C071
:1023E0000E94AF03C090E302D090E402E090E502C7
:1023F000F090E6026C157D058E059F0508F4E2C09D
:10240000C090E302D090E402E090E502F090E60292
:102410009B01AC012C193D094E095F0969017A0144
:102420003AEFC316D104E104F10408F4C6C0609386
:10243000E3027093E4028093E5029093E6028092B7
:10244000040490920504A0920604B092070410922E
:1024500008041092090410920A0410920B0480914F
:10246000FC039091FD03A091FE03B091FF038093C4
:10247000000490930104A0930204B09303040E940B
:10248000AF036093FC037093FD038093FE0390936E
:10249000FF0389E593E00E94A301843609F429D95A
:1024A0000E94AF036093F8037093F9038093FA03DB
:1024B0009093FB030E94AF036B017C0182E792E0E3
:1024C0004AD84AE061E070E080E090E00E942E0A85
:1024D00089E792E040D84AE0C701B6010E942E0A7F
:1024E0008BE792E038D88091FC039091FD03A09196
:1024F000FE03B091FF03A7019601281B390B4A0B7D
:102500005B0BCA01B9014AE00E942E0A8BE792E0F8
:1025100022D86091FC037091FD038091FE0390919D
:10252000FF03C0900004D0900104E0900204F090FA
:1025300003046C197D098E099F094AE00E942E0A46
:102540008DE792E008D80E94AF034AE00E942E0A6D
:102550008FE792E00E949F0A0E94AF036B017C010B
:102560002B013C0135E0430E511C611C711C0E9483
:10257000AF036C157D058E059F0528F0461657069E
:1025800068067906A0F789E593E00E94A3018436E6
:1025900009F4AFD80E94AF036093FC037093FD036E
:1025A0008093FE039093FF0308C00E94AF03623044
:1025B00071058105910508F013CF0E94AC0A0E94B5
:1025C000530207CF6093E3027093E4028093E50225
:1025D0009093E60215CFFC0188279927E894219172
:1025E0002032E9F3293010F02E30C8F32B3239F0C5
:1025F0002D3231F4689403C00BD0820F911D2191CC
:1026000020532A30C8F31EF4909581959F4F08956A
:102610007AE0979F902D879F802D910D112408952A
:10262000A1E21A2EAA1BBB1BFD010DC0AA1FBB1FD6
:10263000EE1FFF1FA217B307E407F50720F0A21B48
:10264000B30BE40BF50B661F771F881F991F1A94B5
:1026500069F760957095809590959B01AC01BD01DF
:10266000CF01089509D0A59F900DB49F900DA49F10
:10267000800D911D11240895A29FB001B39FC00148
:10268000A39F700D811D1124911DB29F700D811D9E
:102690001124911D0895EE0FFF1F881F8BBF079017
:1026A000F691E02D1994E894DF93CF93FC01DB01C0
:1026B000E3DF7F936F93E9019A01AC01BF93AF937E
:1026C0003F932F93DF01D8DF26F46C1B7D0B820B29
:1026D000930B9E01EB01FC012AD0AF91BF912F918A
:1026E0003F9125D0BE01CF01F9012F913F91CF91AC
:1026F000DF91089597FD1094002E083098F008504F
:10270000232F342F452F562F672F782F892F912D68
:10271000F4CF159497958795779567955795479535
:10272000379527950A95AAF71124002D0895A4DF5F
:10273000460F571FC81FD91F08F431960895F89403
:02274000FFCFC9
:1027420000000000E801500180013402B1018F0154
:10275200A30100000000BB068F06E9067D01880682
:10276200750666060D0A000900564D4450565F3143
:102772007C315F564D4450560A00564D4450525FCC
:102782000053656E65736F723A004661696C6564E9
:1027920020746F2064657465637420616E642069BF
:1027A2006E697469616C697A652073656E736F72A4
:1027B2002100564D4450455F003A323A007C005F9A
:0627C200564D4450450095
:00000001FF
