:10000000F5C0000021C100001FC100001DC100009B
:100010001BC1000019C1000017C1000015C100007C
:1000200013C1000011C100000FC100000DC100008C
:100030000BC1000009C1000007C1000005C100009C
:1000400003C1000001C10000FFC00000FDC00000AE
:10005000FBC00000F9C00000F7C000002CC4000085
:10006000F3C00000F2C30000C7C30000EDC00000F1
:10007000EBC00000E9C00000E7C00000E5C00000E0
:10008000E3C00000E1C00000DFC00000DDC00000F0
:10009000DBC00000D9C00000D7C00000D5C0000000
:1000A000D3C00000D1C00000CFC00000CDC0000010
:1000B000CBC00000C9C00000C7C00000C5C0000020
:1000C000C3C00000C1C00000BFC00000BDC0000030
:1000D000BBC00000B9C00000B7C00000B5C0000040
:1000E000B3C0000000002100240027002A002D00DA
:1000F0003000330001010000040107010A01000083
:100100002200250028002B002E00310034000201BF
:100110000000050108010B01050505050705080894
:100120000808020202020A0A080804040404010181
:100130000101010101010303030303030303040796
:1001400007070C0C0C0C0C0C0C0C0202020206062D
:100150000606060606060B0B0B0B0B0B0B0B010220
:1001600010202008081020401020408002010201C9
:100170000804020101020408102040808040201081
:1001800008040201800402018040201008040201DA
:100190000804020101020408102040800102040842
:1001A0001020408000000A0B02090C0D0E08070306
:1001B000040100000000000000000000000000003A
:1001C000000000000000000000000000000000002F
:1001D00012111000000000000000000000000000EC
:1001E00000000000000000000000A50411241FBE54
:1001F000CFEFD1E2DEBFCDBF00E00CBF23E0AAE429
:10020000B2E001C01D92AA33B207E1F712E0A0E00C
:10021000B2E0ECEEFEE000E00BBF02C007900D92F2
:10022000AA34B107D9F710E0C6EFD0E000E005C06E
:1002300021970109802FFE014FD6C53FD10780E0ED
:100240000807B1F7C1D350C6DBCEE7E5F2E0A089DD
:10025000B18982E08C93A485B5851C92A685B7856B
:100260008FEC8C93108EA489B58986E08C93A2893B
:10027000B3898C9180618C93A289B3898C918860B9
:100280008C93A289B3898C9180688C930288F389BE
:10029000E02D80818F7D80830895AF92BF92CF92B1
:1002A000DF92EF92FF920F931F93CF93DF936C0136
:1002B0007B018B01040F151FEB015E01AE18BF0817
:1002C000C017D10759F06991D601ED91FC910190C9
:1002D000F081E02DC6011995892B79F7C501DF91D1
:1002E000CF911F910F91FF90EF90DF90CF90BF9033
:1002F000AF900895FC01538D448D252F30E0842F5D
:1003000090E0821B930B541710F0CF96089501973D
:100310000895FC01918D828D981761F0A28DAE0F2A
:10032000BF2FB11D5D968C91928D9F5F9F73928FB1
:1003300090E008958FEF9FEF0895FC01918D828DDD
:10034000981731F0828DE80FF11D858D90E00895AA
:100350008FEF9FEF0895FC01918D228D892F90E002
:10036000805C9F4F821B91098F739927089587E5C1
:1003700092E0F1DF21E0892B09F420E0822F08953B
:10038000FC01A48DA80FB92FB11DA35ABF4F2C910A
:10039000848D90E001968F739927848FA689B78901
:1003A0002C93A089B1898C91837080648C93938DF8
:1003B000848D981306C00288F389E02D80818F7D9B
:1003C00080830895EF92FF920F931F93CF93DF9353
:1003D000EC0181E0888F9B8D8C8D98131AC0E88981
:1003E000F989808185FF15C09FB7F894EE89FF8950
:1003F0006083E889F98980818370806480839FBFEE
:1004000081E090E0DF91CF911F910F91FF90EF90ED
:100410000895F62E0B8D10E00F5F1F4F0F731127FD
:10042000E02E8C8D8E110BC00FB607FCFACFE88939
:10043000F989808185FFF5CFCE01A2DFF2CFEB8D68
:10044000EC0FFD2FF11DE35AFF4FF0829FB7F89498
:100450000B8FEA89FB8980818062D0CFCF93DF93B5
:10046000EC01888D8823B1F0AA89BB89E889F989D4
:100470008C9185FD03C0808186FD0CC00FB607FC02
:10048000F7CF8C9185FFF2CF808185FFEDCFCE0134
:1004900077DFEACFDF91CF91089580E090E0892B5C
:1004A00021F065DF81110E94000080E090E0892B3F
:1004B00049F080E090E0892B29F00E940000811132
:1004C0000E94000080E090E0892B49F080E090E0FD
:1004D000892B29F00E94000081110E94000080E019
:1004E00090E0892B49F080E090E0892B29F00E9470
:1004F000000081110C9400000895282F30E0F901CC
:10050000EC55FE4F9491F901E25AFE4F4491285E5A
:100510003E4FF9012491222309F434C0992309F1B3
:1005200091509231F0F4E92FF0E08827E656FD4F24
:100530008F4FD2C4CB02CF02AC02C302C702B102BA
:10054000D202D802DC02E202E602EA02F002F4027F
:10055000B102F802FE020203809180008F7780933F
:100560008000E22FF0E0EE0FFF1FE250FF4FA59159
:10057000B4918FB7F894EC91611148C040954E2327
:100580004C938FBF0895809180008F7DE8CF80913C
:100590008000877FE4CF84B58F7784BDE2CF84B5B8
:1005A0008F7DFBCF8091B0008F778093B000D9CF43
:1005B0008091B0008F7DF9CF809190008F778093EC
:1005C0009000CFCF809190008F7DF9CF80919000E7
:1005D000877FF5CF8091A0008F778093A000C1CF57
:1005E0008091A0008F7DF9CF8091A000877FF5CF0B
:1005F000809120018F7780932001B3CF80912001DB
:100600008F7DF9CF80912001877FF5CF4E2BB8CF1A
:10061000CF93DF9390E0FC01E25AFE4F2491885E75
:100620009E4FFC0184918823D1F090E0880F991FA0
:10063000FC01EC51FF4FA591B491FC01E250FF4F3A
:10064000C591D49161110EC09FB7F8948C91E22F9F
:10065000E0958E238C932881E223E8839FBFDF916E
:10066000CF9108958FB7F894EC91E22BEC938FBF64
:10067000F6CF3FB7F89480914F0290915002A0912D
:100680005102B091520226B5A89B05C02F3F19F028
:100690000196A11DB11D3FBFBA2FA92F982F882702
:1006A000BC01CD01620F711D811D911D42E0660FDD
:1006B000771F881F991F4A95D1F708952FB7F8948F
:1006C00060914B0270914C0280914D0290914E02CC
:1006D0002FBF0895FC0101900020E9F73197AF0189
:1006E000481B590BBC0187E592E0D7CD8F929F92B2
:1006F000AF92BF920F931F93CF93DF93CDB7DEB727
:10070000A1970FB6F894DEBF0FBECDBF19A242303D
:1007100008F44AE08E010F5D1F4F842E912CB12CFE
:10072000A12CA5019401B6D3E62FB901CA01EA3084
:10073000ECF4E05DD801EE938D01232B242B252BC7
:1007400081F790E080E0109711F0CD01C3DFA19612
:100750000FB6F894DEBF0FBECDBFDF91CF911F91D2
:100760000F91BF90AF909F908F900895E95CE2CF7A
:100770001F93CF93DF9300D01F92CDB7DEB787E5ED
:1007800092E0C7DD87E592E0C4DD10E08A3371F0C6
:10079000E1E0F0E0EC0FFD1FE10FF11D17FDFA9510
:1007A00080831F5F87E592E0B4DDF0CFCE01019634
:1007B0004CD3182F87E592E0ACDD8053990B823043
:1007C000910518F4682F812F98DE87E592E0A1DD6E
:1007D0008A3011F08D30C9F787E592E0AEDD8A30BE
:1007E00019F487E592E095DD0F900F900F900F9030
:1007F000DF91CF911F9108951F920F920FB60F9224
:1008000011240BB60F922F933F934F935F936F93E7
:100810007F938F939F93AF93BF93EF93FF9387E55E
:1008200092E0AEDDFF91EF91BF91AF919F918F91DB
:100830007F916F915F914F913F912F910F900BBEE0
:100840000F900FBE0F901F9018951F920F920FB62A
:100850000F9211240BB60F922F938F939F93EF93C8
:10086000FF93E0916702F09168028081E0916D0250
:10087000F0916E0282FD1DC09081809170028F5FA9
:100880008F7320917102821741F0E0917002F0E0C5
:10089000E95AFD4F958F80937002FF91EF919F91E0
:1008A0008F912F910F900BBE0F900FBE0F901F9046
:1008B00018958081F2CF1F920F920FB60F921124DC
:1008C0002F933F938F939F93AF93BF9380914B024E
:1008D00090914C02A0914D02B0914E0230914A028B
:1008E00023E0230F2D3758F50196A11DB11D20934C
:1008F0004A0280934B0290934C02A0934D02B09316
:100900004E0280914F0290915002A0915102B091FD
:1009100052020196A11DB11D80934F029093500287
:10092000A0935102B0935202BF91AF919F918F91CA
:100930003F912F910F900FBE0F901F90189526E8B2
:10094000230F0296A11DB11DD2CFE7E5F2E013827D
:10095000128288EE93E0A0E0B0E084839583A683C2
:10096000B78384E092E09183808385EC90E0958763
:10097000848784EC90E09787868780EC90E0918B69
:10098000808B81EC90E0938B828B82EC90E0958B56
:10099000848B86EC90E0978B868B118E128E138E53
:1009A000148EE4EFF2E0168217821086118612860A
:1009B00013861486158616861786108A118A128A5F
:1009C000138A148A158A0895789484B5826084BD48
:1009D00084B5816084BD85B5826085BD85B5816043
:1009E00085BD80916E00816080936E0010928100C1
:1009F000809181008260809381008091810081607C
:100A0000809381008091800081608093800080913C
:100A1000B10084608093B1008091B00081608093C8
:100A2000B00080919100826080939100809191004C
:100A3000816080939100809190008160809390000C
:100A40008091A10082608093A1008091A1008160CB
:100A50008093A1008091A00081608093A00080918C
:100A60002101826080932101809121018160809326
:100A700021018091200181608093200180917A0082
:100A8000846080937A0080917A00826080937A00FB
:100A900080917A00816080937A0080917A008068EA
:100AA00080937A001092C10010923603109237039F
:100AB00010923803109239031092F6021092F70246
:100AC0001092F8021092F902F9DD6B017C014B01E2
:100AD0005C0128EB820E2BE0921EA11CB11CEEDD06
:100AE0006C157D058E059F0528F086169706A806CD
:100AF000B906A8F7BEDD4B015C0198EEC92E93E064
:100B0000D92EE12CF12CB5DD681979098A099B09E8
:100B1000683E734081059105B0F331E0C31AD108F6
:100B2000E108F10848EE840E43E0941EA11CB11CBC
:100B3000C114D104E104F10431F787DBBFDD609318
:100B4000F6027093F7028093F8029093F90282E123
:100B500092E0C0DDB3DD6B017C014B015C018AE0FA
:100B6000880E911CA11CB11CA9DD6C157D058E059C
:100B70009F0528F086169706A806B906A8F781E013
:100B800080930A039BDD6093F6027093F7028093D3
:100B9000F8029093F90283E292E09CDD56DB8AE250
:100BA00092E098DD83E392E095DD61E083E030DD63
:100BB00061E084E02DDD61E085E02ADD61E086E032
:100BC00027DD61E087E024DD61E088E021DD61E090
:100BD00089E01EDD61E08AE01BDD61E08BE018DD6D
:100BE00061E08CE015DD61E08DE012DD61E08EE01A
:100BF0000FDD61E08FE00CDD60E080E109DD61E0A8
:100C000081E106DD60E082E103DD61E087E100DD96
:100C100060E088E1FDDC61E089E1FADC60E08AE126
:100C2000F7DC60E083E1F4DC60E083E166DC60E057
:100C300084E1EEDC60E084E160DC60E085E1E8DC3A
:100C400060E085E15ADC60E086E1E2DC60E086E1BC
:100C500054DC60E087E3DCDC61E08DE0D9DC84EF2C
:100C6000882E99249394A12CB12C28DD672B682B16
:100C7000692B09F4D8C022DDC0905302D0905402F1
:100C8000E0905502F09056026C157D058E059F058B
:100C900008F4D2C0C0905302D0905402E0905502A4
:100CA000F09056029B01AC012C193D094E095F09D9
:100CB00069017A013AEFC316D104E104F10408F4A2
:100CC000B9C060935302709354028093550290937D
:100CD00056028092020390920303A0920403B09202
:100CE0000503109206031092070310920803109256
:100CF00009038091FA029091FB02A091FC02B0914D
:100D0000FD028093FE029093FF02A0930003B09334
:100D10000103D4DC6093FA027093FB028093FC021F
:100D20009093FD0287E592E008DB843609F420DD2C
:100D3000C5DC6093F6027093F7028093F8029093FB
:100D4000F902BCDC6B017C0186E392E0C3DC4AE083
:100D500061E070E080E090E0C9DC8DE392E0BADC15
:100D60004AE0C701B601C2DC8FE392E0B3DC8091B8
:100D7000FA029091FB02A091FC02B091FD02A70142
:100D80009601281B390B4A0B5B0BCA01B9014AE0DB
:100D9000ADDC8FE392E09EDC6091FA027091FB0281
:100DA0008091FC029091FD02C090FE02D090FF0263
:100DB000E0900003F09001036C197D098E099F09F2
:100DC0004AE094DC81E492E085DC78DC4AE08EDC69
:100DD00083E492E07FDC83E392E07CDC6FDC6B01F8
:100DE0007C012B013C0135E0430E511C611C711C40
:100DF00065DC6C157D058E059F0528F046165706A7
:100E000068067906A8F787E592E097DA843609F450
:100E1000AFDC54DC6093FA027093FB028093FC0217
:100E20009093FD0207C04ADC62307105810591058F
:100E300008F021CF32DB19CF609353027093540234
:100E4000809355029093560225CFFC01882799275D
:100E5000E89421912032E9F3293010F02E30C8F3C4
:100E60002B3239F02D3231F4689403C00BD0820F4D
:100E7000911D219120532A30C8F31EF4909581953D
:100E80009F4F08957AE0979F902D879F802D910D19
:100E900011240895A1E21A2EAA1BBB1BFD010DC04F
:100EA000AA1FBB1FEE1FFF1FA217B307E407F5071A
:100EB00020F0A21BB30BE40BF50B661F771F881FF6
:100EC000991F1A9469F760957095809590959B018C
:100ED000AC01BD01CF010895EE0FFF1F881F8BBF2E
:0C0EE0000790F691E02D1994F894FFCFD4
:100EEC0000000000E2014D017A012E02AB018901E4
:100EFC009D01564D4450565F317C315F564D4450E8
:100F0C00560A00564D4450525F0053656E65736F20
:100F1C00723A000D0A00564D4450455F003A323A81
:0A0F2C00007C005F564D4450450064
:00000001FF
